:100000000C94EE010C9416020C9416020C94160239
:100010000C9416020C9416020C9416020C94160200
:100020000C9416020C9416020C9453110C94C211E9
:100030000C9416020C9416020C9416020C941602E0
:100040000C9416020C9416020C9416020C941602D0
:100050000C9416020C9416020C9416020C940911BE
:100060000C9416020C9416020C9416020C941602B0
:100070000C9416020C9416020C9416020C941602A0
:100080000C9416020C9416020C9416020C94160290
:100090000C9416020C9416020C9416020C94160280
:1000A0000C9416020C9416020C9416020763423646
:1000B000B79BD8A71A39685618AEBAAB558C1D3CF9
:1000C000B7CC5763BD6DEDFD753EF6177231BF00BD
:1000D0000000803F05A84CCDB2D44EB93836A902F5
:1000E0000C50B9918688083CA6AAAA2ABE00000036
:1000F000803F080B00020202000009040000010218
:10010000020000052400100105240101010424025D
:1001100006052406000107058103100040090401BB
:1001200000020A00000007050202400000070583E4
:10013000024000000403090412010002EF02014022
:100140004F1B0692000101020301537061726B465E
:10015000756E00537061726B46756E2050726F2021
:100160004D6963726F00070605040100080A0B0C55
:100170000D0952657475726E696E6720746F205038
:10018000726576696F7573204D6F6465204661698D
:100190006C7572652E2E2E0053657474696E67201F
:1001A000426175647261746520537563636573732E
:1001B00066756C2100456E746572696E6720436FC9
:1001C0006E66696775726174696F6E204D6F6465E4
:1001D000205375636365737366756C2100456E7497
:1001E0006572696E6720436F6E66696775726174C8
:1001F000696F6E204D6F6465204661696C7572652C
:100200002E2E2E004D43503235313520696E6974E3
:10021000206661696C65640043414E2066696C74B8
:1002200065722069736E277420776F726B696E67D1
:100230000000000000240027002A002D00300000EC
:10024000000000250028002B002E003100000000D7
:10025000002300260029002C002F000404040404BD
:100260000304050202020204030202020206060659
:1002700006060604040202020404040802011040F7
:1002800080401020408040800802040180402010FF
:100290000201108010204040200000000200090FE1
:1002A0000000030401000C0000000000000000003A
:1002B0000000000000000053657474696E67204DF3
:1002C00061736B205375636365737366756C21008E
:1002D00053657474696E67204D61736B2046616964
:1002E0006C7572652E2E2E00456E746572696E6790
:1002F0002050726576696F7573204D6F6465204676
:1003000061696C7572652E2E2E00456E746572697A
:100310006E6720436F6E66696775726174696F6E90
:10032000204D6F6465204661696C7572652E2E2EB6
:10033000005374617274696E6720746F2053657422
:10034000204D61736B210053657474696E6720469C
:10035000696C746572205375636365737366756C3D
:10036000210053657474696E672046696C74657208
:10037000204661696C7572652E2E2E00456E74657F
:1003800072696E672050726576696F7573204D6F64
:100390006465204661696C7572652E2E2E00456E6F
:1003A00074657220436F6E66696775726174696FF8
:1003B0006E204D6F6465204661696C7572652E2EE6
:1003C0002E005374617274696E6720746F205365D8
:1003D000742046696C7465722100271411241FBEB5
:1003E000CFEFDAE0DEBFCDBF11E0A0E0B1E0E2E2A6
:1003F000F3E402C005900D92A03BB107D9F722E0CB
:10040000A0EBB1E001C01D92A13EB207E1F711E0FF
:10041000CEEED1E004C02197FE010E94201ECD3E09
:10042000D107C9F70E946F140C948F210C9400001F
:10043000FC0180913D02882311F13FB7F89482E0DE
:100440008093E9002091F200822F90E0181619069F
:1004500014F481E090E0882339F0289844E6409332
:100460003C024091F1004083222339F02091F200B8
:10047000211103C02BE62093E8003FBF08958FEFC2
:100480009FEF08952FB7F89483E08093E90090914F
:10049000E800892F807295FF04C09091F20080E4FB
:1004A000891B2FBF08958091340281110DC082E015
:1004B0008093300284E080933102109233021092D4
:1004C000320281E08093340280E392E0089581500B
:1004D0008F3008F047C0E82FF0E0EF58FD4F0C9444
:1004E000201E8E029202800286028A02B202B202AC
:1004F000B20295029B029F02A302A902B202AD02C0
:10050000809180008F778093800008958091800093
:100510008F7DF9CF80918000877FF5CF84B58F776D
:1005200084BD089584B58F7DFBCF809190008F7737
:10053000809390000895809190008F7DF9CF8091F5
:100540009000877FF5CF8091C0008F778093C000A7
:1005500008958091C0008F7DF9CF8091C200877F80
:100560008093C2000895CF93DF93282F30E0F901E4
:10057000E756FD4F8491F901E658FD4FD491F901FA
:10058000E55AFD4FC491CC23A1F081110E9467026E
:10059000EC2FF0E0EE0FFF1FE35BFD4FA591B49150
:1005A000EC91ED2381E090E009F480E0DF91CF91C0
:1005B000089580E090E0FACF1F93CF93DF93282F28
:1005C00030E0F901E756FD4F8491F901E658FD4FFF
:1005D000D491F901E55AFD4FC491CC23A9F0162F0F
:1005E00081110E946702EC2FF0E0EE0FFF1FE15C2B
:1005F000FD4FA591B4918FB7F894EC91111108C0FB
:10060000D095DE23DC938FBFDF91CF911F910895AA
:10061000DE2BF8CFCF93DF9390E0FC01E658FD4F3F
:100620002491855A9D4FFC0184918823D1F090E05C
:10063000880F991FFC01EF5CFD4FA591B491FC015F
:10064000E15CFD4FC591D491623071F49FB7F8948D
:100650003C91822F809583238C93E8812E2B2883D5
:100660009FBFDF91CF9108958FB7F894EC912E2B17
:100670002C938FBFF6CF3FB7F89480912C029091C6
:100680002D02A0912E02B0912F0226B5A89B05C085
:100690002F3F19F00196A11DB11D3FBFBA2FA92F01
:1006A000982F8827BC01CD01620F711D811D911DFE
:1006B00042E0660F771F881F991F4A95D1F708956A
:1006C0008F929F92AF92BF92CF92DF92EF92FF9262
:1006D0004B015C010E943B036B017C010E943B03C8
:1006E0006C197D098E099F09683E7340810591054B
:1006F000A8F321E0821A9108A108B10888EEC80E7B
:1007000083E0D81EE11CF11C81149104A104B10402
:1007100029F7FF90EF90DF90CF90BF90AF909F9020
:100720008F9008952FB7F894609128027091290254
:1007300080912A0290912B022FBF0895AF92BF9211
:10074000CF92DF92EF92FF920F931F93CF93DF939D
:10075000D090BA028091BD029091BE02A091BF02DA
:10076000B091C002892B8A2B8B2BD9F00E943B03BE
:10077000009166021091670220916802309169022F
:10078000601B710B820B930B0091BD021091BE0296
:100790002091BF023091C002601771078207930752
:1007A000C8F20E943B0360936602709367028093D5
:1007B000680290936902E091C502F091C6023097F9
:1007C00059F04091C1025091C2026091C3027091F0
:1007D000C4028D2D0995D82EC0916402D091650276
:1007E00084E4E82E82E0F82E8701209749F182E028
:1007F0000436180729F18D858823F1F0E881F98105
:10080000A284B3840680F781E02DCE010995BC0156
:10081000CE01F5010995F801918380838091BB0297
:100820009091BC028436910508F41C860C80DD8111
:10083000C02D0E5F1F4FD9CFF80111821082EECF6D
:10084000C0916402D091650200E110E02097A9F008
:100850008D85882361F04E855F856A817B81E88183
:10086000F9810280F381E02D2D2DCE0109950C80B8
:10087000DD81C02D0150110949F7C0916402D0916A
:1008800065022097C9F0F4E6EF16F2E0FF06A1F04A
:100890008D85882351F0F70160817181E881F981AC
:1008A0000484F585E02DCE0109950C80DD81C02DF5
:1008B000F2E0EF0EF11CE5CF8091420290914302ED
:1008C000EC012196D0934302C09342024997E4F190
:1008D0000E94920300913E0210913F02209140023B
:1008E000309141026B017C01C01AD10AE20AF30A7D
:1008F000A7019601211531054105510521F421E09B
:1009000030E040E050E088EE93E0C89FB001C99F1E
:10091000700DD89F700D1124072E000C880B990BB9
:100920000E94DB1D3093BC022093BB021092430255
:10093000109242020E94920360933E0270933F0223
:100940008093400290934102DF91CF911F910F91CC
:10095000FF90EF90DF90CF90BF90AF90089580E927
:1009600091E008954091B6015091B7012091B401F2
:100970003091B50142175307B4F49091E800957097
:10098000E1F39091E80092FD19C08093F10080910D
:10099000B6019091B70101968F739927892B19F4AD
:1009A0008EEF8093E8008091B6019091B701019697
:1009B0009093B7018093B60181E0089580E0089597
:1009C000DF92EF92FF920F931F93CF93DF93D82E76
:1009D0008A01EB017B01E40EF51ECE15DF0559F00F
:1009E000D7FE12C0FE0184910E94B20421968111AB
:1009F000F4CF0FEF1FEFC801DF91CF911F910F913F
:100A0000FF90EF90DF9008958881EECF0F931F93B2
:100A1000CF93DF931F92CDB7DEB782E0898342E4A4
:100A200050E062EF70E080E80E94E0040E94530210
:100A3000DC0112960D911C910115110589F0D80168
:100A4000ED91FC910280F381E02DBE016F5F7F4F3D
:100A5000C801099597FD04C0F80100851185ECCF08
:100A600089810F90DF91CF911F910F91089561506F
:100A700030F02091F100FC0120830196F8CF2898F6
:100A800084E680933C0208958F929F92AF92BF922A
:100A9000CF92DF92EF92FF920F931F93CF93DF934A
:100AA0006C017B018A0180910B01882309F45CC0F1
:100AB00080913D02882309F457C08091BA0180FFDC
:100AC00005C08091E00082608093E000E801B12CD5
:100AD0008AEFA82E93E0892E2AE3922E209711F414
:100AE000BB20D9F10E94420281110AC0AA94AA2017
:100AF000D9F161E070E080E090E00E946003EECF09
:100B00008C171D0611F00CF08C2F9FB7F894809273
:100B1000E9002091E80025FD02C09FBFDFCF282F0C
:100B200030E0C21BD30BF701815020F0419140937C
:100B3000F100FACFE20EF31EBB2021F09092E80004
:100B4000B12CEBCF8091E80085FDE7CF9092E800D3
:100B5000BB24B394209709F3F3CF5D9884E6809388
:100B6000B901101611063CF081E090E0F601938384
:100B7000828310E000E0C801DF91CF911F910F91B7
:100B8000FF90EF90DF90CF90BF90AF909F908F90AD
:100B90000895CF93DF931F92CDB7DEB76983DC0151
:100BA000ED91FC910280F381E02D41E050E0BE0127
:100BB0006F5F7F4F09950F90DF91CF91089583E08C
:100BC0008093E9008091F200882319F08AE38093F2
:100BD000E80008950E94420290E00895CF93DF93C9
:100BE0001F92CDB7DEB7FC018485958597FD08C0BF
:100BF0002FEF3FEF358724870F90DF91CF91089536
:100C0000CE0101960E941802019719F4898190E0A3
:100C1000F3CF8FEF9FEFF0CF0F931F93CF93DF931F
:100C20001F92CDB7DEB78C01FC018485958597FFB7
:100C30000BC0CE0101960E941802019771F48981C0
:100C400090E0F80195878487F801848595850F9059
:100C5000DF91CF911F910F9108958FEF9FEFF1CF0B
:100C6000FC018485958597FD0BC09FB7F89482E0C1
:100C70008093E9008091F2009FBF90E00196089573
:100C80009FB7F89482E08093E9008091F2009FBFC3
:100C900090E00895FC018081869F080E80E0811D10
:100CA00080838181869F080E80E0811D81838281FF
:100CB000869F080E80E0811D82831124CF01089554
:100CC000AF92BF92CF92DF92EF92FF920F931F935A
:100CD000CF93DF9300D01F92CDB7DEB75A011982B0
:100CE0001A821B82882361F18B01E1E0F0E0E82E9B
:100CF000F12CD8012D918D012223F1F06F01B1E08B
:100D0000CB1AD108D501AC0DBD1D4C914423A1F0E7
:100D100030E02F5F3F4FD7010E94FD1DA42FB0E0B0
:100D200011969B01AC010E94C81DA1E0B0E0AC0F80
:100D3000BD1FAC0DBD1D8C933196E430F105C9F695
:100D400069817A818B810F900F900F90DF91CF9105
:100D50001F910F91FF90EF90DF90CF90BF90AF90D9
:100D60000895FC018DE191E09183808313821282CA
:100D70008FEF86838783808781878287838781E05F
:100D8000848785871786168680E797E1918B808B0D
:100D900083E090E0938B828B158A148A15821482EB
:100DA0008091640290916502892B21F4F093650291
:100DB000E0936402A091B201B091B301109721F0C9
:100DC0001596FC93EE931497F093B301E093B20160
:100DD000089581E090E0089508958EBD00000DB45F
:100DE00007FEFDCF8EB508958CBD9DBD08950F9370
:100DF0001F93CF93DF932091B1012F5F322F377074
:100E00003093B10120FF2BC020E831FD2064347005
:100E100009F02062205FFC01EC01239600E011E064
:100E20006785662329F070E0C8010E940C1E6F5F81
:100E30006187822F869F080E80E0811D1124811119
:100E400010C01682662311F0615061873196EC174D
:100E5000FD0731F7DF91CF911F910F91089520E0A9
:100E6000D4CF81508683EECF4F925F927F928F9244
:100E70009F92AF92BF92CF92DF92EF92FF920F9329
:100E80001F93CF93DF932C01EB010E943B03F201F0
:100E900026893789621B730B6A307105B0F3F894A9
:100EA0008A819B81181619060CF0CDC1E881F98161
:100EB00061B3862E689480F831B33E7F31BBDA840B
:100EC0008F812D2D281B822F2F834C85042E000C03
:100ED000550BAA81BB817889FF84E9887F5FF394F1
:100EE000E3949E819884B984AB841181C12C6C2DCC
:100EF0000C2D2C2D2181112788942111280F08F405
:100F00002FEF8195889470FD120F1795889471FDCD
:100F1000120F1795889472FD120F1795889473FD20
:100F2000120F1795889474FD120F1795889475FD0C
:100F3000120F1795889476FD120F1795889477FDF8
:100F4000120F17958894622F7111612F8D0D162F36
:100F5000002C81BA00C017FF31BB2081662788941E
:100F600000C000C0002C31BB2111290F00C0002C93
:100F700081BA00C016FF31BB08F42FEF9195889419
:100F800000C000C0002C31BBF0FC620F00C0002C80
:100F900081BA00C015FF31BB67958894F1FC620FE0
:100FA00000C000C0002C31BB6795889400C0002CA5
:100FB00081BA00C014FF31BBF2FC620F67958894C0
:100FC00000C000C0002C31BBF3FC620F00C0002C3D
:100FD00081BA00C013FF31BB67958894F4FC620F9F
:100FE00000C000C0002C31BB6795889400C0002C65
:100FF00081BA00C012FF31BBF5FC620F679588947F
:1010000000C000C0002C31BBF6FC620F00C0002CF9
:1010100081BA00C011FF31BB67958894F7FC620F5D
:1010200000C000C0002C31BB6795889400C0002C24
:1010300081BA00C010FF31BB122FF110162F9B0D8B
:1010400000C000C0002C31BB00C000C0002C81BA21
:1010500000C017FF31BB22816627889400C000C002
:10106000002C31BB2111290D00C0002C81BA00C019
:1010700016FF31BB08F42FEFE40FF51F00C000C0CE
:10108000002C31BBE0FC620F00C0002C81BA00C014
:1010900015FF31BB67958894E1FC620F00C000C06A
:1010A000002C31BB6795889400C0002C81BA00C029
:1010B00014FF31BBE2FC620F6795889400C000C04A
:1010C000002C31BBE3FC620F00C0002C81BA00C0D1
:1010D00013FF31BB67958894E4FC620F00C000C029
:1010E000002C31BB6795889400C0002C81BA00C0E9
:1010F00012FF31BBE5FC620F6795889400C000C009
:10110000002C31BBE6FC620F00C0002C81BA00C08D
:1011100011FF31BB67958894E7FC620F00C000C0E7
:10112000002C31BB6795889400C0002C81BA00C0A8
:1011300010FF31BB122FE110162F919400C000C098
:10114000002C31BB9A0C00C000C081BA00C017FF50
:1011500031BB21816627889400C000C0002C31BBC0
:101160002111280F00C0002C81BA00C016FF31BB2E
:1011700008F42FEF8195889400C000C0002C31BB8B
:1011800070FD620F00C0002C81BA00C015FF31BB9A
:101190006795889471FD620F00C000C0002C31BBC0
:1011A0006795889400C0002C81BA00C014FF31BB41
:1011B00072FD620F6795889400C000C0002C31BB9F
:1011C00073FD620F00C0002C81BA00C013FF31BB59
:1011D0006795889474FD620F00C000C0002C31BB7D
:1011E0006795889400C0002C81BA00C012FF31BB03
:1011F00075FD620F6795889400C000C0002C31BB5C
:1012000076FD620F00C0002C81BA00C011FF31BB17
:101210006795889477FD620F00C000C0002C31BB39
:101220006795889400C0002C81BA00C010FF31BBC4
:10123000122F7111162F8D0D00C000C0002C31BB74
:10124000119709F086CEEA81FB812EE130E0DF01C3
:101250000E94261E30E020E0A901AAE9EA9F0E0EB6
:10126000411DFA9F400D511D11244F0F511DDC01EE
:10127000CB01840F951FA11DB11D893E43E094074A
:10128000A105B10508F434C0885E9340A109B109F5
:1012900042E0B695A795979587954A95D1F747E08F
:1012A000849F080E211D949F200D311D1124290FAC
:1012B000311D6091B00170E0860F971F820F931F60
:1012C000409128025091290260912A0270912B02CC
:1012D000292F3327420F531F611D711D4093280290
:1012E0005093290260932A0270932B028093B001DD
:1012F00078940E943B03F201778B668BDF91CF914C
:101300001F910F91FF90EF90DF90CF90BF90AF9023
:101310009F908F907F905F904F900895809A08954E
:101320004F925F927F928F929F92AF92BF92CF9295
:10133000DF92EF92FF920F931F93CF93DF932C01D5
:10134000EB010E943B03F20126893789621B730B74
:101350006A307105B0F3F8948A819B8118161906DA
:101360000CF0CDC1E881F9816BB1862E689480F8CC
:101370003BB13E7F3BB9DA848F812D2D281B822F14
:101380002F834C85042E000C550BAA81BB817889D4
:10139000FF84E9887F5FF394E3949E819884B98405
:1013A000AB841181C12C6C2D0C2D2C2D218111278A
:1013B00088942111280F08F42FEF8195889470FDEF
:1013C000120F1795889471FD120F1795889472FD6E
:1013D000120F1795889473FD120F1795889474FD5A
:1013E000120F1795889475FD120F1795889476FD46
:1013F000120F1795889477FD120F17958894622F16
:101400007111612F8D0D162F002C8BB800C017FFA6
:101410003BB920816627889400C000C0002C3BB9EE
:101420002111290F00C0002C8BB800C016FF3BB95A
:1014300008F42FEF9195889400C000C0002C3BB9B0
:10144000F0FC620F00C0002C8BB800C015FF3BB948
:1014500067958894F1FC620F00C000C0002C3BB976
:101460006795889400C0002C8BB800C014FF3BB96E
:10147000F2FC620F6795889400C000C0002C3BB955
:10148000F3FC620F00C0002C8BB800C013FF3BB907
:1014900067958894F4FC620F00C000C0002C3BB933
:1014A0006795889400C0002C8BB800C012FF3BB930
:1014B000F5FC620F6795889400C000C0002C3BB912
:1014C000F6FC620F00C0002C8BB800C011FF3BB9C6
:1014D00067958894F7FC620F00C000C0002C3BB9F0
:1014E0006795889400C0002C8BB800C010FF3BB9F2
:1014F000122FF110162F9B0D00C000C0002C3BB91D
:1015000000C000C0002C8BB800C017FF3BB922817F
:101510006627889400C000C0002C3BB92111290D1A
:1015200000C0002C8BB800C016FF3BB908F42FEFA9
:10153000E40FF51F00C000C0002C3BB9E0FC620FB7
:1015400000C0002C8BB800C015FF3BB9679588948C
:10155000E1FC620F00C000C0002C3BB96795889485
:1015600000C0002C8BB800C014FF3BB9E2FC620F36
:101570006795889400C000C0002C3BB9E3FC620F63
:1015800000C0002C8BB800C013FF3BB9679588944E
:10159000E4FC620F00C000C0002C3BB96795889442
:1015A00000C0002C8BB800C012FF3BB9E5FC620FF5
:1015B0006795889400C000C0002C3BB9E6FC620F20
:1015C00000C0002C8BB800C011FF3BB96795889410
:1015D000E7FC620F00C000C0002C3BB967958894FF
:1015E00000C0002C8BB800C010FF3BB9122FE110D7
:1015F000162F919400C000C0002C3BB99A0C00C07B
:1016000000C08BB800C017FF3BB9218166278894C2
:1016100000C000C0002C3BB92111280F00C0002CD5
:101620008BB800C016FF3BB908F42FEF8195889462
:1016300000C000C0002C3BB970FD620F00C0002C40
:101640008BB800C015FF3BB96795889471FD620F98
:1016500000C000C0002C3BB96795889400C0002CE6
:101660008BB800C014FF3BB972FD620F6795889478
:1016700000C000C0002C3BB973FD620F00C0002CFD
:101680008BB800C013FF3BB96795889474FD620F57
:1016900000C000C0002C3BB96795889400C0002CA6
:1016A0008BB800C012FF3BB975FD620F6795889437
:1016B00000C000C0002C3BB976FD620F00C0002CBA
:1016C0008BB800C011FF3BB96795889477FD620F16
:1016D00000C000C0002C3BB96795889400C0002C66
:1016E0008BB800C010FF3BB9122F7111162F8D0D52
:1016F00000C000C0002C3BB9119709F086CEEA81EA
:10170000FB812EE130E0DF010E94261E30E020E068
:10171000A901AAE9EA9F0E0E411DFA9F400D511D35
:1017200011244F0F511DDC01CB01840F951FA11D0A
:10173000B11D893E43E09407A105B10508F434C00A
:10174000885E9340A109B10942E0B695A7959795A7
:1017500087954A95D1F747E0849F080E211D949FF5
:10176000200D311D1124290F311D6091B00170E051
:10177000860F971F820F931F4091280250912902D4
:1017800060912A0270912B02292F3327420F531F99
:10179000611D711D409328025093290260932A0213
:1017A00070932B028093B00178940E943B03F20166
:1017B000778B668BDF91CF911F910F91FF90EF9008
:1017C000DF90CF90BF90AF909F908F907F905F9071
:1017D0004F900895509A08956F927F928F92CF9272
:1017E000DF92EF92FF920F931F93CF93DF93CDB7CA
:1017F000DEB762970FB6F894DEBF0FBECDBF8C0187
:101800006B017A01822FA801475F5F4FB8016A5FC1
:101810007F4F0E9460063B01882ED8011C962C91B8
:10182000C701F7FE04C0882799278E199F09DA821D
:10183000C9829C838B839E838D83688A798A8A8AF6
:10184000213049F5CE0101960E94F70683E08D878D
:101850001F861E86F7FE02C08DEF8D87D801ED91A1
:10186000FC910088F189E02DBE016F5F7F4FC801B8
:10187000099562960FB6F894DEBF0FBECDBFDF911B
:10188000CF911F910F91FF90EF90DF90CF908F90AD
:101890007F906F9008951C861B861A86198618867D
:1018A0001F82D4CFCF92DF92EF92FF920F931F93BC
:1018B000CF93DF93CDB7DEB762970FB6F894DEBF54
:1018C0000FBECDBF8C016B017A01822FA801475F4B
:1018D0005F4FB8016A5F7F4F0E9460069B01482FEF
:1018E000D8011C968C91DA82C982FC82EB82FE823E
:1018F000ED82288B398B4A8B813009F5CE01019618
:101900000E94F7061D861F861E86D801ED91FC9168
:101910000088F189E02DBE016F5F7F4FC8010995F6
:1019200062960FB6F894DEBF0FBECDBFDF91CF91A8
:101930001F910F91FF90EF90DF90CF9008951C863C
:101940001B861A86198618861F82DCCFEAE0F2E031
:101950006083718382832383348345830C949E0345
:1019600090E080E00895FC0164870895FC0184857F
:1019700090E00895FC018685978508950F931F9345
:10198000FC0100E012E12AE730E090E04017510747
:101990006207730740F436952795179507959F5F63
:1019A0009630A1F797E0292F206A269520839095FD
:1019B000917091831F910F910895FF920F931F9340
:1019C000CF93DF9300D0CDB7DEB7F82E0BEC12E04B
:1019D000F8014289538964897589CE0101960E9474
:1019E000BE0C89819A810E94F40660E0F80180892A
:1019F0000E94DC0283E00E94ED068F2D0E94ED061E
:101A000080E00E94ED06F82E61E0F80180890E94D6
:101A1000DC028F2D0F900F90DF91CF911F910F91CE
:101A2000FF900895DF92EF92FF920F931F93CF9351
:101A3000DF9300D0CDB7DEB7D82EE62EF42E0BEC18
:101A400012E0F8014289538964897589CE010196B3
:101A50000E94BE0C89819A810E94F40660E0F80120
:101A600080890E94DC0285E00E94ED068D2D0E9497
:101A7000ED068E2D0E94ED068F2D0E94ED0661E091
:101A8000F80180890E94DC020F900F90DF91CF91C6
:101A90001F910F91FF90EF90DF900895CF93DF9308
:101AA000C82F0E949203D62F4C2F60EE8FE00E9429
:101AB000120D8EE00E94DD0C807EC81749F00E9456
:101AC00092036D1B693C80F381E0DF91CF91089513
:101AD00080E0FBCFCF93DF93C82F8EE00E94DD0C18
:101AE000807E8032F9F4C032E9F08BE20E94DD0C96
:101AF000D82FD07486FD05C040E460E48BE20E94DC
:101B0000120D40E460E48CE20E94120D80E60E9417
:101B10004E0D811111C0D11105C040E060E48BE28F
:101B20000E94120D40E060E48CE20E94120D8C2FA6
:101B3000DF91CF910C944E0D81E0DF91CF9108950C
:101B4000DF92EF92FF920F931F93CF93DF9300D01A
:101B5000CDB7DEB7182FD62EF72EE42E4091DD023A
:101B60005091DE026091DF027091E002CE01019699
:101B70000E94BE0C89819A810E94F40660E08091E7
:101B8000DB020E94DC0282E00E94ED06812F0E94AF
:101B9000ED060D2D1F2DE00EF12EF11C0E151F056B
:101BA00031F0F80181918F010E94ED06F7CF61E0DD
:101BB0008091DB020E94DC020F900F90DF91CF91A9
:101BC0001F910F91FF90EF90DF900895CF92DF92D9
:101BD000EF92FF92CF93DF9300D000D0CDB7DEB766
:101BE000E32FFF276A01EE24FF242C83EB839C2D37
:101BF000613009F5990F990F990F907E2C2D237064
:101C00002860922B9A83A60125E0569547952A9540
:101C1000E1F7498344E0BE016F5F7F4F0E94A00D52
:101C20000F900F900F900F90DF91CF91FF90EF905A
:101C3000DF90CF9008959295990F907E9A83A60198
:101C400093E0569547959A95E1F7E3CFEF92FF928F
:101C50000F931F93CF93DF9300D0CDB7DEB7E82E5D
:101C6000F62E0BEC12E0F8014289538964897589DC
:101C7000CE0101960E94BE0C89819A810E94F406D1
:101C800060E0F80180890E94DC0282E00E94ED069B
:101C90008E2D0E94ED068F2D0E94ED0661E0F80169
:101CA00080890E94DC020F900F90DF91CF911F91ED
:101CB0000F91FF90EF9008952F923F924F925F9275
:101CC0006F927F928F929F92AF92CF92DF92EF921C
:101CD000FF920F931F93CF93DF9300D000D0CDB727
:101CE000DEB70E943B032B013C01809010019090D5
:101CF0001101A09012011E0124E0220E311C8982E4
:101D00009A82AB82CE0101966C01F82E0D2DF60160
:101D100011916F01812F0E94DD0C83FD14C01F5FA4
:101D2000E12C0E943B03DC01CB0184199509A60933
:101D3000B709F2E0EF120EC0843C9940A105B1054D
:101D4000F0F206E07DC0C214D30409F710E072E09F
:101D5000E72EE7CF843C9940A105B10590F740916B
:101D6000D00261ED72E085E0810F0E94A00D8091AC
:101D7000D902813029F48091D00280648093D0020E
:101D80006091D00284E0810F0E94260E4091CC0227
:101D90005091CD026091CE027091CF028091CB0222
:101DA0008130D9F54C835B83AB0166277727842F7D
:101DB00083708860942F990F990F990F907E892BCB
:101DC0008A8365E0569547956A95E1F7498344E033
:101DD0006F2D702F812F0E94A00D115048E068E0F8
:101DE000812F0E94120D0E943B036B017C01812F09
:101DF0000E94DD0C082F08700E943B03DC01CB0120
:101E00008C199D09AE09BF090023A9F0843C9940B3
:101E1000A105B10560F307E013C0CA0123E0969560
:101E200087952A95E1F789834295440F407E4A833E
:101E30001C821B82CCCF843C9940A105B10558F788
:101E4000802F0F900F900F900F90DF91CF911F91E7
:101E50000F91FF90EF90DF90CF90AF909F908F9079
:101E60007F906F905F904F903F902F900895EF92EA
:101E70000F93CF93DF9300D0CDB7DEB7998180FB6E
:101E800090F960FB91F940FB92F920FB93F999835B
:101E90008A8100FB81F9E0FA80F98A8382E09AE185
:101EA000A0E5B0E08093CC029093CD02A093CE0247
:101EB000B093CF021092D90281E08093CB0282E0EE
:101EC0008093D002FE013196A1EDB2E0CE010996D9
:101ED00021912D93E817F907D9F70E945C0E60E075
:101EE000811101C061E08AE00F900F90DF91CF91E6
:101EF0000F91EF900C94DC02DF92EF92FF920F9320
:101F00001F93CF93DF9300D0CDB7DEB7182FD62E17
:101F1000F72EE42E4091DD025091DE026091DF0247
:101F20007091E002CE0101960E94BE0C89819A81D7
:101F30000E94F40660E08091DB020E94DC0283E0F4
:101F40000E94ED06812F0E94ED060D2D1F2DE00E43
:101F5000F12EF11C0E151F0539F080E00E94ED06F0
:101F6000F80181938F01F6CF61E08091DB020E943E
:101F7000DC020F900F90DF91CF911F910F91FF9096
:101F8000EF90DF9008950F931F93CF93DF9300D0CE
:101F900000D0CDB7DEB7182F1092CB021092CC0232
:101FA0001092CD021092CE021092CF0244E0BE01F8
:101FB0006F5F7F4F0E947C0F2A81898138E0839F69
:101FC000C0011124422F50E065E0559547956A9570
:101FD000E1F7840F951F092E000CAA0BBB0B809311
:101FE000CC029093CD02A093CE02B093CF0223FFF8
:101FF00029C032E0880F991FAA1FBB1F3A95D1F75D
:102000002370820F911DA11DB11DBA2FA92F982FEA
:1020100088272B81820F911DA11DB11DBA2FA92FD9
:10202000982F88272C81820F911DA11DB11D8093AF
:10203000CC029093CD02A093CE02B093CF0281E068
:102040008093CB028FEF810F0E94DD0C082F84E07C
:10205000810F0E94DD0C03FF16C091E09093D9021E
:10206000482F4F704093D00261ED72E085E0810F00
:102070000E947C0F0F900F900F900F90DF91CF91E7
:102080001F910F9108951092D902EACFFC0101909F
:102090000020E9F73197AF01481B590BBC018AE6D4
:1020A00092E00C9444050F931F93CF93DF938C0120
:1020B000D0E0C0E0F801EC0FFD1F6491662341F011
:1020C0008AE692E00E94C905892B11F02196F2CF91
:1020D00082E791E00E9446108C0F9D1FDF91CF9107
:1020E0001F910F910895CF92DF92EF92FF92CF93BD
:1020F000DF93C82F6A017B0182EC93E00E945310AA
:1021000080E80E946A0DD82F8EE993E0D1111CC09F
:10211000C330B9F118F5C13051F1C23069F1A701EE
:10212000960161E080E00E94E60D8091DC020E9451
:102130006A0DD82F87E493E0DD2331F08CE793E03C
:102140000E94531082E693E00E9453108D2FDF917E
:10215000CF91FF90EF90DF90CF900895C430B1F011
:10216000C530E9F6A701960161E088E1DCCFA7015F
:10217000960161E084E0D7CFA701960161E088E095
:10218000D2CFA701960161E080E1CDCFA7019601F2
:1021900061E084E1C8CFCF93DF93D82F81E393E050
:1021A0000E94531080E80E946A0DC82F8AE093E0D5
:1021B000C11119C02FEF3FEF4FEF5FE161E080E207
:1021C000D11184E20E94E60D8091DC020E946A0D2A
:1021D000C82F87EB92E0CC2331F088EE92E00E948A
:1021E000531080ED92E00E9453108C2FDF91CF911D
:1021F0000895CF93DF930E944610EC0182E791E0AF
:102200000E9446108C0F9D1FDF91CF9108950E9470
:102210008A211F920F920FB60F9211242F933F9392
:102220008F939F93AF93BF9380912802909129023F
:10223000A0912A02B0912B023091270223E0230FB4
:102240002D3758F50196A11DB11D209327028093CB
:10225000280290932902A0932A02B0932B02809126
:102260002C0290912D02A0912E02B0912F02019686
:10227000A11DB11D80932C0290932D02A0932E02DC
:10228000B0932F02BF91AF919F918F913F912F916A
:102290000F900FBE0F901F90189526E8230F0296FF
:1022A000A11DB11DD2CF1F920F920FB60F92112414
:1022B0008F939F938091E1009091E100937F9093A1
:1022C000E10083FF0FC01092E90091E09093EB00D2
:1022D0001092EC0092E39093ED0010923D0298E092
:1022E0009093F00082FF22C093E09093E9009091D8
:1022F000F200992319F09AE39093E8009091B901C4
:10230000992341F09091B90191509093B9019111A5
:1023100001C05D9A90913C02992341F090913C025A
:10232000915090933C02911101C0289A84FF18C0EB
:102330008091E2008E7E81608093E2008091E100D6
:102340008F7E8093E1008091BA018E7E80618093C0
:10235000BA019F918F910F900FBE0F901F9018950B
:1023600080FFF7CF8091E2008E7E80618093E20053
:102370008091E1008E7E8093E1008091BA018E7E93
:102380008160E5CF1F920F920FB60F921124CF926A
:10239000DF92EF92FF920F931F932F933F934F93F0
:1023A0005F936F937F938F939F93AF93BF93EF93BD
:1023B000FF93CF93DF93CDB7DEB76C97DEBFCDBF72
:1023C0001092E9008091E80083FF25C068E0CE010B
:1023D00045960E94370582EF8093E8008D8987FF3C
:1023E00039C09091E80090FFFCCF982F907609F0CB
:1023F00034C19E894F89588D2F89F88C911131C035
:10240000803861F58091BB018093F1001092F1005A
:102410008EEF8093E8006C960FB6F894DEBF0FBE87
:10242000CDBFDF91CF91FF91EF91BF91AF919F9180
:102430008F917F916F915F914F913F912F911F915C
:102440000F91FF90EF90DF90CF900F900FBE0F9005
:102450001F9018959EEF9093E800C7CF1092F1005F
:10246000D5CF913059F48111D3CF4130510581F648
:102470008091BB018D7F8093BB01CACF933049F41B
:102480008111C6CF4130510519F68091BB018260A0
:10249000F2CF953041F48091E80080FFFCCF2068B6
:1024A0002093E300B5CF963009F0A9C00B8D1C8DA9
:1024B00022E01092E9001092B7011092B601F212D8
:1024C0002EC01092B5011092B4010E9406051F8221
:1024D00099E09983FA8291E09E8390EA98879AEF37
:1024E00099872091B6013091B701275F3F4F3C8318
:1024F0002B838D831092E9001092B7011092B601E0
:102500001093B5010093B40149E050E0BE016F5F44
:102510007F4F80E00E94E0040E94060579CF10936F
:10252000B5010093B4010E945302DC0112960D9193
:102530001C910115110509F451C1D801ED91FC91CF
:102540000480F581E02DBE016B5E7F4FC8010995C7
:10255000009709F03EC1F80100851185EACFF3E04C
:10256000FF120EC08F89882309F440C0823061F4C5
:1025700040E862E183E591E00E94F413811148CFC5
:1025800081E28093EB0047CF813029F440E868E096
:102590008AE491E0F1CF833099F70E945302DC0185
:1025A0001296ED90FC908E010F5F1F4F6801E114B1
:1025B000F10479F0D701ED91FC910680F781E02DCF
:1025C000B801C7010995080F111DF701E084F184D6
:1025D000EECFD8011C92F60101900020E9F7319767
:1025E000BF016C197D0940E0C601C6CF64E371E00C
:1025F000FB01449150E080E80E94E00409CF97304D
:1026000009F4BECF983021F481E08093F10000CF2F
:10261000993009F0FDCE837009F0B2CFEEE2F1E01F
:1026200081E031E096E32191222371F08093E9006B
:102630003093EB00DF0111972C912093EC009093E5
:10264000ED008F5F873079F78EE78093EA00109274
:10265000EA008F8980933D02DBCE8B8D9C8D10929A
:10266000E9001092B7011092B6019093B5018093E2
:10267000B401898D811192C08E899D89913A49F466
:10268000813209F07DCF47E050E064E071E080E006
:10269000B3CF913209F074CF833269F48F89988D6A
:1026A000B0E0A0E08093000190930101A0930201AB
:1026B000B0930301ADCE803269F48091E80082FFCF
:1026C000FCCF67E084E091E00E9437058BEF8093B8
:1026D000E8009ECE823209F09BCE8F8980930B0159
:1026E000EEEFFFE7859194918B3F9C4D51F1E0E037
:1026F000F8E08091040190910501A0910601B0914C
:102700000701803B9440A105B105F1F480910B01D4
:1027100080FD1AC0EE3F8AE0F80789F587E797E762
:1027200091838083809160008093B80188E19BE071
:102730000FB6F894A895809360000FBE9093600048
:1027400067CEEEEFFAE0D5CF80819181873797474A
:1027500009F05ECEA895809160008861809360004A
:102760008091B80180936000EE3F2AE0F20789F083
:102770008091FE0A9091FF0A9183808349CE8081E7
:1027800091818737980751F29093FF0A8093FE0A50
:10279000C5CF1092FF0A1092FE0A3ACE0E94530251
:1027A000DC0112960D911C910115110509F4E8CE7A
:1027B000D801ED91FC910190F081E02DBE016B5E9E
:1027C0007F4FC8010995811123CEF801008511853D
:1027D000EBCF181619060CF41BCED2CEF1E0FF1287
:1027E000BECE68E371E004CFEF92FF920F931F9388
:1027F000CF93DF93F82E192FE62E042F81E0860F5A
:10280000880F0E94B20483E00E94B204CF2DD12F22
:10281000EC0EFD2EF11CCE15DF05B9F007FF13C03D
:10282000FE0184910E94B204182F80E00E94B2043D
:10283000812321968111EFCFDF91CF911F910F91CD
:10284000FF90EF9008958881EDCF81E0F5CFCF9391
:10285000DF93EAE6F2E01382128288EE93E0A0E0D2
:10286000B0E084839583A683B78384E691E0918367
:1028700080838FEF9FEF95878487EAEBF2E0808378
:1028800012821182148613868FEF9FEFDC018783FB
:102890009087A187B2871382148215821682CBECAF
:1028A000D2E080E896E9A8E9B0E08A8B9B8BAC8BFC
:1028B000BD8B84E1888B61E00E94DC0261E0888945
:1028C0000E940A030E9492036093C7027093C80299
:1028D0008093C9029093CA02DF91CF910895CF935C
:1028E000DF93CDB7DEB7C954D1090FB6F894DEBF78
:1028F0000FBECDBF789484B5826084BD84B58160FD
:1029000084BD85B5826085BD85B5816085BD8091BA
:102910006E00816080936E00109281008091810032
:10292000826080938100809181008160809381002A
:10293000809180008160809380008091910082600E
:1029400080939100809191008160809391008091AB
:1029500090008160809390008091C100846080939A
:10296000C1008091C10082608093C1008091C1004C
:1029700081608093C1008091C30081608093C30017
:102980008091C00082608093C0008091C20081600D
:102990008093C20080917A00846080937A00809155
:1029A0007A00826080937A0080917A0081608093BF
:1029B0007A0080917A00806880937A0010923D02BC
:1029C0001092BB011092BA018091D7008160809370
:1029D000D70080EA8093D80089B5806189BD89B528
:1029E000826089BD09B400FEFDCF61E070E080E047
:1029F00090E00E9460038091D8008F7C806180937A
:102A0000D8008091E000807F8093E0008091E10019
:102A10008E7E8093E1008DE08093E200559A209AAB
:102A20008FEF9FEF9093770280937602E6E6F1E0D6
:102A3000E49190917B008E2F880F880F80729F7D8C
:102A4000892B80937B00E770E064E0937C008091A9
:102A50007A00806480937A0080917A0086FDFCCFB2
:102A60008091780060917900762F682F072E000CF6
:102A7000880B990B611571058105910511F00E9474
:102A8000A01D0E94511DC12CD12C7601CA94A70112
:102A900096010E94A91D70930902609308020E948A
:102AA000511DA70196010E94A91D70930702609312
:102AB000060261E084E10E940A0361E084E10E9471
:102AC000DC0262E086E10E940A0362E085E10E9486
:102AD0000A038091D401811111C08CEB91E00E9416
:102AE000B1061092D3011092D20188E391E0909345
:102AF000BD018093BC0181E08093D4018CEB91E017
:102B00000E948E098AE092E09093BF018093BE01FB
:102B100082E090E09093CB018093CA018091BD0246
:102B20009091BE02A091BF02B091C002843C29E006
:102B30009207A105B10520F484EC99E0A0E0B0E093
:102B40008093BD029093BE02A093BF02B093C002D7
:102B50008091F401811111C08CED91E00E94B106C9
:102B60001092F3011092F2018EE491E09093DD0156
:102B70008093DC0181E08093F4018CED91E00E9470
:102B8000EA0B8DEF91E09093DF018093DE0183E00B
:102B900090E09093EB018093EA018091BD029091C7
:102BA000BE02A091BF02B091C002843C39E09307FD
:102BB000A105B10520F484EC99E0A0E0B0E0809399
:102BC000BD029093BE02A093BF02B093C0023CE648
:102BD000A32E32E0B32E4BE8E42E42E0F42E50E474
:102BE000D52ECFB6F8948091FC01811125C0F50156
:102BF0008491F7019491E82FF0E0EE0FFF1FEF5C56
:102C0000FD4FA591B4918C91982321F461E081E16D
:102C10000E94DC0261E081E10E940A038CB58061C0
:102C20008CBD8CB580648CBD61E08FE00E940A038E
:102C300061E080E10E940A038091FC018F5F809334
:102C4000FC01CFBE4091DD025091DE026091DF02B7
:102C50007091E002CE0101960E94BE0C89819A819A
:102C60000E94F40660E08091DB020E94DC0280ECAE
:102C70000E94ED0661E08091DB020E94DC0265E0CB
:102C800070E080E090E00E946003D092DC0280E877
:102C90000E946A0D882379F08DED91E00E94531017
:102CA00084E092E00E94531068EE73E080E090E0D0
:102CB0000E94600396CF85EB91E00E94531060E084
:102CC0008AE20E94260E6AEC89E20E94260E61E8E2
:102CD00088E20E94260E88E991E00E94531020E0CD
:102CE00030E0A90161E080E20E94E60D20E030E0E2
:102CF000A90161E084E20E94E60D20E030E0A90134
:102D000061E080E00E94E60D20E030E0A90160E093
:102D100084E00E94E60D20E030E0A90161E088E057
:102D20000E94E60D20E030E0A90160E080E10E9411
:102D3000E60D20E030E0A90161E084E10E94E60DAB
:102D400020E030E0A90160E088E10E94E60D10E398
:102D500060E0812F0E94260E60E080E1810F0E94DA
:102D6000260E60E080E2810F0E94260E1F5F1E3358
:102D700079F760E080E60E94260E60E080E70E941E
:102D8000260E63E08BE20E94260E6CE38CE00E942C
:102D9000260E60E08DE00E94260E44E064E680E6A8
:102DA0000E94120D40E060E680E70E94120D8091C3
:102DB000DC020E946A0D882309F4FDC482E791E0D9
:102DC0006DCF10920A0210920B0210920C02109218
:102DD0000D0210920E0210920F021092FD0110923D
:102DE000FE011092FF011092000210920102109257
:102DF00002021092030210920402109205020E9435
:102E00009E0368EC70E080E090E00E9460032091F7
:102E1000130130911401409115012A962DAF3EAF58
:102E20004FAF2A9733243394212CAE01465D5F4F78
:102E30005CAB4BABCE0182969EAB8DAB0E949203F6
:102E40004B015C018092C7029092C802A092C90215
:102E5000B092CA020E9492030E94891F20E030E0D3
:102E600048EC53E40E94AE1E0E9421216BAF7CAF60
:102E70008DAF9EAF0E9492030E94891F20E030E038
:102E800048EC53E40E94AE1E0E94212123966CAFB1
:102E90007DAF8EAF9FAF239786E10E94B3027C0186
:102EA00011E0892B09F410E085E10E94B3026C0166
:102EB00091E09FABC114D10409F41FAA80912602AE
:102EC000811164C08091220290912302A09124027A
:102ED000B091250224013501481A590A6A0A7B0A71
:102EE000EF2891F1D301C2014597A109B109833BB4
:102EF0009105A105B10578F4E090200200911F0230
:102F000020E040E060E081E00E94370F85E791E03B
:102F10000E94F91045C0D301C201895C9109A10941
:102F2000B1098F3B9241A105B10570F4E0902002F8
:102F300000911F0220E041E060E080E00E94370F36
:102F40008BE791E00E94F91039E8431633E153060C
:102F50006104710428F1E090200200911F0220E03A
:102F600041E060E080E00E94370FD501C401805548
:102F70009441A109B1098093220290932302A09366
:102F80002402B093250282E891E0C2CFEF2841F4F9
:102F90008092220290922302A0922402B0922502F3
:102FA0001093260280911E02811164C080911A0242
:102FB00090911B02A0911C02B0911D0224013501C9
:102FC000481A590A6A0A7B0ACD2891F1D301C20135
:102FD0004597A109B109833B9105A105B10578F495
:102FE000E090200200911F0220E040E061E080E0DC
:102FF0000E94370F81E991E00E94F91045C0D3018A
:10300000C201895C9109A109B1098F3B9241A105D7
:10301000B10570F4E090200200911F0221E040E031
:1030200060E080E00E94370F88E991E00E94F9108B
:1030300049E8441643E154066104710428F1E09024
:10304000200200911F0221E040E060E080E00E9449
:10305000370F20E5821A24E1920AA108B108809274
:103060001A0290921B02A0921C02B0921D0280EAEA
:1030700091E0C2CFCD2841F480921A0290921B02B7
:10308000A0921C02B0921D023FA930931E0281E063
:103090000E94B302892B09F0BEC04091DD0250911D
:1030A000DE026091DF027091E002CE0101960E9483
:1030B000BE0C89819A810E94F40660E08091DB0257
:1030C0000E94DC0280EA0E94ED0680E00E94ED068C
:1030D000182F61E08091DB020E94DC0210FF52C0D9
:1030E00081E60E94C30F40E061E08CE20E94120D75
:1030F0008091CB02882389F08091CC029091CD02FF
:10310000A091CE02B091CF02B0688093CC02909390
:10311000CD02A093CE02B093CF028091D902882332
:1031200089F08091CC029091CD02A091CE02B09115
:10313000CF02B0648093CC029093CD02A093CE02D4
:10314000B093CF028091CC029091CD02A091CE029B
:10315000B091CF0227968CAF9DAFAEAFBFAF279790
:103160008091D002A1EDB2E0FE01B29690E09F0105
:103170004DA95EA9241B350B281739075CF42D9146
:103180002193F5CF11FF06C081E70E94C30F40E0F5
:1031900062E0ABCF27968CAC9DACAEACBFAC2797B2
:1031A0005FE1B5220E9492036093160270931702AA
:1031B0008093180290931902811482E0980680E2AD
:1031C000A806B10409F0B7C022E032E040E550E0C3
:1031D0002093CC023093CD024093CE025093CF0285
:1031E0001092D9023092CB0284E08093D002FE018B
:1031F000B296A1EDB2E081918D934BA95CA94E17D7
:103200005F07C9F70E945C0E60E0811101C061E0B8
:103210008AE00E94DC020E94920300911602109143
:1032200017022091180230911902601B710B820B5A
:10323000930B633371058105910508F476C13092D3
:10324000100280911002882309F472C18FEF8983E4
:103250001A821B820E9492030E94891F20E030E0A4
:1032600048E452E40E94AE1E0E9421216B017C01C1
:103270000E9492030E94891F20E030E048E452E45B
:103280000E94AE1E0E9421219B01AC01C701B60124
:103290000E94B4206B017C010E9492030E94891F4E
:1032A00020E030E048E452E40E94AE1E0E9421215A
:1032B0009B01AC01C701B6010E94B4206B017C01E7
:1032C0000E9492030E94891F20E030E048E452E40B
:1032D0000E94AE1E0E9421219B01AC01C701B601D4
:1032E0000E94B42020E030E04FE753E40E94B42075
:1032F0000E945A1FCE0101960E944A06FC0180815D
:103300009181A28189839A83AB8380930A029093EF
:103310000B02A0930C0280930D0290930E02A093D7
:103320000F020E949E0320E030E0232B09F486CD9B
:103330000E94000077CD811453E0950650E2A50667
:10334000B10409F0A5C01AA11F738FEF88AB19AAA9
:103350001AAA1DA690E89EA71FA61AA61BA68CA7B0
:1033600023962CAD3DAD4EAD5FAD23976BAD7CADDF
:103370008DAD9EAD0E94B42020E030E04FE753E4D5
:103380000E94B4200E945A1F062FCE01C0960E94B0
:103390004A06FC0180819181A28188AB99ABAAABDE
:1033A000602FCE018D960E944A06FC01808191819A
:1033B000A2818DA79EA7AFA7602FCE018A960E94FB
:1033C0004A06FC0180819181A2818AA79BA7ACA7B4
:1033D0001092150210921402212F30E050E040E0CC
:1033E00019A26E01F1E2CF0ED11CCA01B9012AE087
:1033F00030E040E050E00E94DB1D605DD6016E933E
:103400006D01211531054105510579F7109719F026
:10341000CD010E94461082E791E00E9446101830CC
:1034200039F158F4123099F0143009F0F4CE2FEF3E
:1034300030E040E060E070E029C0103111F110325E
:1034400009F0E9CE28A939A94AA96FEFF4CF309243
:103450001502809113028111DECE8091120281113A
:10346000DACE809111028111D6CE30921402D3CEE1
:103470006AA57BA58CA520E030E840E00E94A60C60
:10348000CACE20E030E840E060E070E880E0F6CFAF
:10349000B5E08B16BBE19B06B0E2AB06B10409F0C8
:1034A0003FC08AA181FB222720F920931F02982F79
:1034B00091709093200282FB332730F930932102E0
:1034C00084FB442740F94093120283FB442740F9D0
:1034D0004093130285FB882780F9809311028FEFB8
:1034E000311101C080E08093FD011092FE01109225
:1034F000FF018FEF211101C080E080930002109244
:103500000102109202028FEF911101C080E08093BE
:10351000030210920402109205020E949E037BCEC9
:1035200088E192E00E94531076CE1092100289CE6C
:1035300010911402112309F447C02A962DAD3EAD17
:103540004FAD2A9729833A834B830E9492030E94AE
:10355000891F20E030E04AEF53E40E94AE1E0E9433
:1035600021216B017C010E9492030E94891F20E0AF
:1035700030E04AEF53E40E94AE1E0E9421219B01DD
:10358000AC01C701B6010E94B4206B017C010E940E
:1035900092030E94891F20E030E04AEF53E40E942A
:1035A000AE1E0E9421219B01AC01C701B6010E9401
:1035B000B4206B017C010E9492030E94891F20E0CD
:1035C00030E04AEF53E484CE80911502882309F459
:1035D000AACE0E949203AB01BC0184E07695679568
:1035E000579547958A95D1F780910802682F640F07
:1035F000262F220F220F220F95E5822F899F080E7A
:1036000080E0811D1124362F3072462F407467FDF3
:103610004EC0411138C0311106C0982F9095282F07
:10362000892F90E004C025E5280F90E08BEA809375
:103630000A0220930B0290930C020E94920321E154
:1036400030E040E050E00E94DB1D80910602280F30
:10365000322F330F330F330F95E5832F899F080ED9
:1036600080E0811D1124422F4072522F507427FD9B
:1036700084C0511171C0411138C0982F9095282FE6
:10368000892F90E036C031110DC0922F2AEA929F07
:10369000090E90E0911D11242BEA291B922F2AEA92
:1036A000280FBECF282F2095982F80E0C0CF411142
:1036B00011C031110BC0922F8AEA989F090E90E039
:1036C000911D11242BEA291B9B5AEFCF982F90951F
:1036D00020E0ADCF311106C025E5280F9BEA981BED
:1036E000822FF6CF2AEA280FFACF25E5280F90E09F
:1036F0008BEA80930D0220930E0290930F020E949A
:1037000092030E94891F20E030E048EC53E40E94BD
:10371000AE1E0E9421216B017C010E9492030E9437
:10372000891F20E030E048EC53E40E94AE1E0E9466
:1037300021219B01AC01C701B6010E94B42020E009
:1037400030E04FE753E40E94B4200E945A1F8DE0FE
:1037500092E00E944A06E5CD41110AC02AEA329F52
:10376000030E30E0311D11249BEA931B280F88CFF4
:10377000282F2095982F80E0BCCF511111C0411106
:103780000BC0932F8AEA989F090E90E0911D112497
:103790002BEA291B9B5AEFCF982F909520E0A9CFB9
:1037A000411106C025E5280F9BEA981B822FF6CF12
:1037B0002AEA280FFACF80E00E94CB1040E053E0C5
:1037C00060E270E080E00E94731040E053E060E24D
:1037D00070E081E00E94731081E00E94CB1040E015
:1037E00052E060E270E082E00E94731040E052E03C
:1037F00060E270E083E00E94731040E052E060E21B
:1038000070E084E00E94731045E05BE160E270E0EC
:1038100085E00E9473101092DC0280E00E946A0D25
:103820000E9492036FAB78AF89AF9AAF40901601B8
:1038300050901701609018010E9492032FA938AD93
:1038400049AD5AAD621B730B840B950B6C3D7540F3
:103850008105910508F0B5CA0E9492032FA938ADE1
:1038600049AD5AAD621B730B840B950B0E94891FE7
:1038700020E030E84BEB54E40E94AE1E4B015C01AB
:10388000AC019B010E94B4206B017C01A501940155
:10389000C501B4010E94421E9B01AC0160E070E0D2
:1038A00080E490E40E94411E9B01AC01C701B60177
:1038B0000E94B4204B015C0120E030E040EA50E47B
:1038C0000E94B42020E030E040E050E40E94411E1D
:1038D0006B017C0120E030E040EC50E4C501B40114
:1038E0000E94B42020E030E040E050E40E94411EFD
:1038F0004B015C01A701960160E070E080E89FE366
:103900000E94411E9B01AC010E94B42090582BE004
:1039100037ED43EA5FE30E94AE1E0E94281F4092EB
:103920000A0250920B0260920C0220E030E04FE756
:1039300053E40E94B4200E945A1F8AE092E00E9441
:103940004A06A701960160E070E0CB010E94411E8B
:103950009B01AC010E94B42090582BE037ED43EA64
:103960005FE30E94AE1E0E94281F40920D025092FB
:103970000E0260920F0220E030E04FE753E40E9415
:10398000B4200E945A1F8DE092E00E944A069DEFEB
:10399000C92E91E0D92E02E010E0B801012E000CF2
:1039A000880B990B0E948B1FA50194010E94411E58
:1039B0009B01AC010E94B42090582BE037ED43EA04
:1039C0005FE30E94AE1E0E94281FD6014D925D92B9
:1039D0006C9220E030E04FE753E40E94B4200E9454
:1039E0005A1FC6010E944A0601501109B3E0CB0ECE
:1039F000D11C0F3F100789F60E949E036AE070E019
:103A000080E090E00E94600317CF8F929F92AF9268
:103A1000BF92CF92DF92EF92FF92CF93DF93EC01B0
:103A2000688179818A819B81611571058105910584
:103A300021F464E279ED8BE597E02DE133EF41E08D
:103A400050E00E94A91D49015A019B01AC01A7EA5F
:103A5000B1E40E94C81D6B017C01ACEEB4EFA5017E
:103A600094010E94D61DC60ED71EE81EF91EF7FE51
:103A700006C081E0C81AD108E10880E8F80AC882C7
:103A8000D982EA82FB82C701B6019F77DF91CF918D
:103A9000FF90EF90DF90CF90BF90AF909F908F906E
:103AA00008958F929F92AF92BF92CF92DF92EF9242
:103AB000FF9260910C0170910D0180910E01909127
:103AC0000F01611571058105910521F464E279ED1D
:103AD0008BE597E02DE133EF41E050E00E94A91D16
:103AE00049015A019B01AC01A7EAB1E40E94C81D3B
:103AF0006B017C01ACEEB4EFA50194010E94D61DD0
:103B0000C60ED71EE81EF91EF7FE06C081E0C81AD1
:103B1000D108E10880E8F80AC0920C01D0920D01AA
:103B2000E0920E01F0920F01C701B6019F77FF905E
:103B3000EF90DF90CF90BF90AF909F908F900895BF
:103B400060930C0170930D0180930E0190930F010F
:103B50000895052E97FB1EF400940E94C01D57FD8A
:103B600007D00E94DB1D07FC03D04EF40C94C01D4F
:103B700050954095309521953F4F4F4F5F4F089599
:103B800090958095709561957F4F8F4F9F4F0895C9
:103B90000E94FD1DA59F900DB49F900DA49F800DC8
:103BA000911D11240895B7FF0C94C81D0E94C81DD3
:103BB000821B930B0895A1E21A2EAA1BBB1BFD01C9
:103BC0000DC0AA1FBB1FEE1FFF1FA217B307E407FC
:103BD000F50720F0A21BB30BE40BF50B661F771F54
:103BE000881F991F1A9469F7609570958095909534
:103BF0009B01AC01BD01CF010895A29FB001B39F0D
:103C0000C001A39F700D811D1124911DB29F700DE5
:103C1000811D1124911D089597FB072E16F4009421
:103C200007D077FD09D00E942D1E07FC05D03EF479
:103C3000909581959F4F0895709561957F4F089558
:103C4000EE0FFF1F0590F491E02D09940E94FD1DD9
:103C5000B7FF0895821B930B0895AA1BBB1B51E16C
:103C600007C0AA1FBB1FA617B70710F0A61BB70BEC
:103C7000881F991F5A95A9F780959095BC01CD0191
:103C800008955058BB27AA270E94591E0C9404205F
:103C90000E94F61F38F00E94FD1F20F039F49F3F6C
:103CA00019F426F40C94CC1F0EF4E095E7FB0C9469
:103CB000C61FE92F0E94152058F3BA176207730731
:103CC0008407950720F079F4A6F50C9437200EF4BC
:103CD000E0950B2EBA2FA02D0B01B90190010C011C
:103CE000CA01A0011124FF27591B99F0593F50F434
:103CF000503E68F11A16F040A22F232F342F44278C
:103D0000585FF3CF469537952795A795F040539583
:103D1000C9F77EF41F16BA0B620B730B840BBAF053
:103D20009150A1F0FF0FBB1F661F771F881FC2F7BE
:103D30000EC0BA0F621F731F841F48F487957795D2
:103D40006795B795F7959E3F08F0B0CF9395880F8C
:103D500008F09927EE0F9795879508950E94C21E47
:103D60000C9404200E94FD1F58F00E94F61F40F0A2
:103D700029F45F3F29F00C94C61F51110C94382090
:103D80000C94CC1F0E94152068F39923B1F355239E
:103D900091F3951B550BBB27AA276217730784075E
:103DA00038F09F5F5F4F220F331F441FAA1FA9F3F4
:103DB00035D00E2E3AF0E0E832D091505040E695E2
:103DC000001CCAF72BD0FE2F29D0660F771F881F43
:103DD000BB1F261737074807AB07B0E809F0BB0B36
:103DE000802DBF01FF2793585F4F3AF09E3F51054A
:103DF00078F00C94C61F0C9438205F3FE4F3983E93
:103E0000D4F3869577956795B795F7959F5FC9F732
:103E1000880F911D9695879597F90895E1E0660FB3
:103E2000771F881FBB1F621773078407BA0720F02C
:103E3000621B730B840BBA0BEE1F88F7E095089595
:103E400029F416F00C94C61F0C9437200C94CC1F48
:103E50000E941D20A8F39638A0F707F80F92E89467
:103E60002BE33AEA48EB5FE70E94CA200F920F92D9
:103E70000F924DB75EB70F920E948020ECEAF0E0FF
:103E80000E94CF1F4F915F91EF91FF91E595EE1F3B
:103E9000FF1F49F0FE57E0684427EE0F441FFA95D4
:103EA000E1F74195550B0E944A200F9007FE0C94B4
:103EB0003E2008950E941D2088F09F5798F0B92F4A
:103EC0009927B751B0F0E1F0660F771F881F991F4F
:103ED0001AF0BA95C9F714C0B13091F00E9437209A
:103EE000B1E008950C943720672F782F8827B85FAA
:103EF00039F0B93FCCF3869577956795B395D9F7A7
:103F00003EF490958095709561957F4F8F4F9F4FB0
:103F10000895E89409C097FB3EF4909580957095BC
:103F200061957F4F8F4F9F4F9923A9F0F92F96E905
:103F3000BB279395F695879577956795B795F1117A
:103F4000F8CFFAF4BB0F11F460FF1BC06F5F7F4F17
:103F50008F4F9F4F16C0882311F096E911C0772329
:103F600021F09EE8872F762F05C0662371F096E832
:103F7000862F70E060E02AF09A95660F771F881F01
:103F8000DAF7880F9695879597F9089597F99F67BF
:103F900080E870E060E008959FEF80EC0895DF9383
:103FA000CF931F930F93FF92EF92DF927B018C01CF
:103FB000689406C0DA2EEF010E94C720FE01E89443
:103FC000A5912591359145915591A6F3EF010E9458
:103FD000591EFE019701A801DA9469F7DF90EF906E
:103FE000FF900F911F91CF91DF91089500240A94C3
:103FF0001616170618060906089500240A941216C4
:104000001306140605060895092E0394000C11F4F6
:10401000882352F0BB0F40F4BF2B11F460FF04C0A3
:104020006F5F7F4F8F4F9F4F089557FD9058440FFC
:10403000551F59F05F3F71F04795880F97FB991F07
:1040400061F09F3F79F087950895121613061406C4
:10405000551FF2CF4695F1DF08C016161706180651
:10406000991FF1CF86957105610508940895E8942C
:10407000BB2766277727CB0197F908959B01AC01F1
:1040800060E070E080E89FE30C94AE1E0C94C61FC5
:104090000C9429210E941D20D8F39923C9F3940F71
:1040A000511DA3F39150504094F059F0882332F001
:1040B000660F771F881F91505040C1F79E3F5105F2
:1040C0002CF7880F911D9695879597F908955F3F76
:1040D000ACF0983E9CF0BB27869577956795B79591
:1040E00008F4B1609395C1F7BB0F58F711F460FF66
:1040F000E8CF6F5F7F4F8F4F9F4FE3CF0C943820F7
:10410000FA01DC01AA0FBB1F9B01AC01BF5728F4C9
:10411000222733274427507820C0B75190F4AB2F83
:104120000024469537952795011CA395D2F30020CE
:1041300071F0220F331F441FB395DAF30ED00C94A5
:10414000411E61307105A0E88A07B94630F49B0131
:10415000AC016627772788279078309621F0208356
:1041600031834283538308950E94C7200C94042016
:104170000E94F61F38F00E94FD1F20F0952311F0D9
:104180000C94C61F0C94CC1F11240C9438200E9450
:10419000152070F3959FC1F3950F50E0551F629F56
:1041A000F001729FBB27F00DB11D639FAA27F00D90
:1041B000B11DAA1F649F6627B00DA11D661F829FB7
:1041C0002227B00DA11D621F739FB00DA11D621F9C
:1041D000839FA00D611D221F749F3327A00D611DB9
:1041E000231F849F600D211D822F762F6A2F11249B
:1041F0009F5750409AF0F1F088234AF0EE0FFF1FCE
:10420000BB1F661F771F881F91505040A9F79E3F24
:10421000510580F00C94C61F0C9438205F3FE4F3E6
:10422000983ED4F3869577956795B795F795E7957A
:104230009F5FC1F7FE2B880F911D9695879597F983
:1042400008959F930E9439210F9007FCEE5F0C9414
:1042500062219F3F31F0915020F4879577956795C3
:10426000B795880F911D9695879597F908950C94A9
:10427000CC1F0E941D20D8F3E894E0E0BB279F5795
:10428000F0F02AED3FE049EC06C0EE0FBB0F661FD1
:10429000771F881F28F0B23A62077307840728F057
:1042A000B25A620B730B840BE3959A9572F78038C0
:1042B00030F49A95BB0F661F771F881FD2F790487E
:1042C0000C942B21EF93E0FF07C0A2EA2AED3FE018
:1042D00049EC5FEB0E94591E0E9404200F9003944A
:1042E00001FC9058E4EDF0E00C9476219F938F93BD
:1042F0007F936F93FF93EF939B01AC010E94B420D7
:10430000EF91FF910E94CF1F2F913F914F915F91AD
:104310000C94B42081E090E0F8940C948F21F894F0
:02432000FFCFCD
:10432200FFFFFFFF00E100000000000001000000AD
:1043320030405080008000327800000000071107F2
:10434200110711BA0CE906B60CB30CB00C00C1800F
:104352008100000000000000520CEC0B8E09BA0C28
:10436200E906B60CB30CAF04340700000000520C8F
:10437200EC0BEA0BBA0CE906B60CB30CAF049009CD
:1043820000000000C9054405EA05DF053006EE0518
:104392000C060D0A005453206F6E005453206F66B2
:1043A200660054532068656C6420666F7220357312
:1043B20000525444206F6E00525444206F666600CF
:1043C2005254442068656C6420666F722035730015
:00000001FF
