:100000000C941B020C9443020C9443020C94430284
:100010000C9443020C9443020C9443020C9443024C
:100020000C9443020C9443020C9480110C94EF1135
:100030000C9443020C9443020C9443020C9443022C
:100040000C9443020C9443020C9443020C9443021C
:100050000C9443020C9443020C9443020C9436110A
:100060000C9443020C9443020C9443020C944302FC
:100070000C9443020C9443020C9443020C944302EC
:100080000C9443020C9443020C9443020C944302DC
:100090000C9443020C9443020C9443020C944302CC
:1000A0000C9443020C9443020C94430207634236BF
:1000B000B79BD8A71A39685618AEBAAB558C1D3CF9
:1000C000B7CC5763BD6DEDFD753EF6177231BF00BD
:1000D0000000803F05A84CCDB2D44EB93836A902F5
:1000E0000C50B9918688083CA6AAAA2ABE00000036
:1000F000803F08000000BE922449123EABAAAA2A03
:10010000BECDCCCC4C3E00000080BEABAAAAAA3E1D
:1001100000000000BF000000803F00000000000859
:100120004178D3BB4387D1133D190E3CC3BD4282F6
:10013000AD2B3E68EC8276BED98FE1A93E4C80EFB4
:10014000FFBE01C4FF7F3F0000000000080B00025B
:100150000202000009040000010202000005240060
:1001600010010524010101042402060524060001F2
:100170000705810310004009040100020A00000085
:100180000705020240000007058302400000040347
:10019000090412010002EF0201404F1B0692000108
:1001A00001020301537061726B46756E00537061FA
:1001B000726B46756E2050726F204D6963726F00CE
:1001C000070605040100080A0B0C0D095265747539
:1001D000726E696E6720746F2050726576696F75F4
:1001E00073204D6F6465204661696C7572652E2EB3
:1001F0002E0053657474696E672042617564726184
:100200007465205375636365737366756C2100456F
:100210006E746572696E6720436F6E66696775728A
:100220006174696F6E204D6F6465205375636365FB
:10023000737366756C2100456E746572696E672014
:10024000436F6E66696775726174696F6E204D6F7A
:100250006465204661696C7572652E2E2E004D43D3
:10026000503235313520696E6974206661696C657C
:10027000640043414E2066696C7465722069736E38
:10028000277420776F726B696E670000000000248E
:100290000027002A002D0030000000000025002863
:1002A000002B002E00310000000000230026002952
:1002B000002C002F000404040404030405020202BD
:1002C00002040302020202060606060606040402EF
:1002D0000202040404080201104080401020408003
:1002E000408008020401804020100201108010208C
:1002F0004040200000000200090F0000030401003C
:100300000C000000000000000000000000000000E1
:100310000053657474696E67204D61736B2053756B
:10032000636365737366756C210053657474696EDD
:1003300067204D61736B204661696C7572652E2E66
:100340002E00456E746572696E672050726576691D
:100350006F7573204D6F6465204661696C757265B9
:100360002E2E2E00456E746572696E6720436F6E87
:1003700066696775726174696F6E204D6F64652080
:100380004661696C7572652E2E2E0053746172740D
:10039000696E6720746F20536574204D61736B2103
:1003A0000053657474696E672046696C74657220C9
:1003B0005375636365737366756C2100536574745C
:1003C000696E672046696C746572204661696C7558
:1003D00072652E2E2E00456E746572696E67205010
:1003E000726576696F7573204D6F6465204661692B
:1003F0006C7572652E2E2E00456E74657220436FEB
:100400006E66696775726174696F6E204D6F6465A1
:10041000204661696C7572652E2E2E0053746172D0
:1004200074696E6720746F205365742046696C741C
:1004300065722100541411241FBECFEFDAE0DEBF35
:10044000CDBF11E0A0E0B1E0ECE2F7E402C005901E
:100450000D92A63BB107D9F722E0A6EBB1E001C0AF
:100460001D92AA3EB207E1F712E0CBE1D2E004C050
:100470002197FE010E94571FCA31D107C9F70E9478
:100480009C140C9494230C940000FC01809146026F
:10049000882311F13FB7F89482E08093E90020911E
:1004A000F200822F90E01816190614F481E090E013
:1004B000882339F0289844E6409345024091F100A2
:1004C0004083222339F02091F200211103C02BE652
:1004D0002093E8003FBF08958FEF9FEF08952FB757
:1004E000F89483E08093E9009091E800892F80726E
:1004F00095FF04C09091F20080E4891B2FBF0895FE
:1005000080913D0281110DC082E08093390284E028
:1005100080933A0210923C0210923B0281E0809359
:100520003D0289E392E0089581508F3008F047C082
:10053000E82FF0E0E256FD4F0C94571FBB02BF02BC
:10054000AD02B302B702DF02DF02DF02C202C8025D
:10055000CC02D002D602DF02DA02809180008F77CF
:10056000809380000895809180008F7DF9CF8091E5
:100570008000877FF5CF84B58F7784BD089584B5DB
:100580008F7DFBCF809190008F77809390000895AE
:10059000809190008F7DF9CF80919000877FF5CF7B
:1005A0008091C0008F778093C00008958091C00033
:1005B0008F7DF9CF8091C200877F8093C20008951C
:1005C000CF93DF93282F30E0F901ED50FD4F849158
:1005D000F901EC52FD4FD491F901EB54FD4FC49158
:1005E000CC23A1F081110E949402EC2FF0E0EE0FD9
:1005F000FF1FE955FD4FA591B491EC91ED2381E0EA
:1006000090E009F480E0DF91CF91089580E090E0E0
:10061000FACF1F93CF93DF93282F30E0F901ED50ED
:10062000FD4F8491F901EC52FD4FD491F901EB5447
:10063000FD4FC491CC23A9F0162F81110E94940282
:10064000EC2FF0E0EE0FFF1FE756FD4FA591B491A0
:100650008FB7F894EC91111108C0D095DE23DC938C
:100660008FBFDF91CF911F910895DE2BF8CFCF93ED
:10067000DF9390E0FC01EC52FD4F24918B549D4F91
:10068000FC0184918823D1F090E0880F991FFC0130
:10069000E557FD4FA591B491FC01E756FD4FC5917B
:1006A000D491623071F49FB7F8943C91822F809579
:1006B00083238C93E8812E2B28839FBFDF91CF91DA
:1006C00008958FB7F894EC912E2B2C938FBFF6CF13
:1006D0003FB7F8948091350290913602A09137028D
:1006E000B091380226B5A89B05C02F3F19F001969E
:1006F000A11DB11D3FBFBA2FA92F982F8827BC017C
:10070000CD01620F711D811D911D42E0660F771FA3
:10071000881F991F4A95D1F708958F929F92AF92A3
:10072000BF92CF92DF92EF92FF924B015C010E9449
:1007300068036B017C010E9468036C197D098E09B6
:100740009F09683E734081059105A8F321E0821A54
:100750009108A108B10888EEC80E83E0D81EE11CFC
:10076000F11C81149104A104B10429F7FF90EF90CA
:10077000DF90CF90BF90AF909F908F9008952FB74C
:10078000F89460913102709132028091330290911D
:1007900034022FBF0895AF92BF92CF92DF92EF92B3
:1007A000FF920F931F93CF93DF93D82E8091C602B1
:1007B0009091C702A091C802B091C902892B8A2BDF
:1007C0008B2BD9F00E94680300916F021091700288
:1007D0002091710230917202601B710B820B930B9E
:1007E0000091C6021091C7022091C8023091C9023F
:1007F0006017710782079307C8F20E94680360932D
:100800006F02709370028093710290937202E09174
:10081000CE02F091CF02309759F04091CA02509128
:10082000CB026091CC027091CD028D2D0995D82E0E
:10083000C0916D02D0916E028DE4E82E82E0F82E18
:100840008701209749F182E00D36180729F18D853F
:100850008823F1F0E881F981A284B3840680F781CE
:10086000E02DCE010995BC01CE01F5010995F801F5
:10087000918380838091C4029091C5028436910552
:1008800008F41C860C80DD81C02D0E5F1F4FD9CF70
:10089000F80111821082EECFC0916D02D0916E02EC
:1008A00000E110E02097A9F08D85882361F04E8546
:1008B0005F856A817B81E881F9810280F381E02D87
:1008C0002D2DCE0109950C80DD81C02D015011091F
:1008D00049F7C0916D02D0916E022097C9F0FDE6F4
:1008E000EF16F2E0FF06A1F08D85882351F0F701A5
:1008F00060817181E881F9810484F585E02DCE0164
:1009000009950C80DD81C02DF2E0EF0EF11CE5CFE2
:1009100080914B0290914C02EC012196D0934C02B5
:10092000C0934B024997E4F10E94BF030091470234
:10093000109148022091490230914A026B017C01DA
:10094000C01AD10AE20AF30AA7019601211531055E
:100950004105510521F421E030E040E050E088EE0F
:1009600093E0C89FB001C99F700DD89F700D1124EE
:10097000072E000C880B990B0E94121F3093C502A2
:100980002093C40210924C0210924B020E94BF03AB
:1009900060934702709348028093490290934A0201
:1009A000DF91CF911F910F91FF90EF90DF90CF904B
:1009B000BF90AF90089580E991E008954091BC0107
:1009C0005091BD012091BA013091BB0142175307EC
:1009D000B4F49091E8009570E1F39091E80092FDF5
:1009E00019C08093F1008091BC019091BD010196E6
:1009F0008F739927892B19F48EEF8093E8008091EB
:100A0000BC019091BD0101969093BD018093BC0102
:100A100081E0089580E00895DF92EF92FF920F93B6
:100A20001F93CF93DF93D82E8A01EB017B01E40E55
:100A3000F51ECE15DF0559F0D7FE12C0FE018491D8
:100A40000E94DE0421968111F4CF0FEF1FEFC80141
:100A5000DF91CF911F910F91FF90EF90DF9008955C
:100A60008881EECF0F931F93CF93DF931F92CDB763
:100A7000DEB782E0898342E450E06CE471E080E814
:100A80000E940C050E948002DC0112960D911C91BF
:100A90000115110589F0D801ED91FC910280F381D7
:100AA000E02DBE016F5F7F4FC801099597FD04C01F
:100AB000F80100851185ECCF89810F90DF91CF91EE
:100AC0001F910F910895615030F02091F100FC01C9
:100AD00020830196F8CF289884E6809345020895F4
:100AE0008F929F92AF92BF92CF92DF92EF92FF923E
:100AF0000F931F93CF93DF936C017B018A01809149
:100B00000B01882309F45CC080914602882309F414
:100B100057C08091C00180FF05C08091E0008260D5
:100B20008093E000E801B12C8AEFA82E93E0892E93
:100B30002AE3922E209711F4BB20D9F10E946F0274
:100B400081110AC0AA94AA20D9F161E070E080E086
:100B500090E00E948D03EECF8C171D0611F00CF073
:100B60008C2F9FB7F8948092E9002091E80025FD32
:100B700002C09FBFDFCF282F30E0C21BD30BF7018D
:100B8000815020F041914093F100FACFE20EF31E24
:100B9000BB2021F09092E800B12CEBCF8091E800CF
:100BA00085FDE7CF9092E800BB24B394209709F32A
:100BB000F3CF5D9884E68093BF01101611063CF0D8
:100BC00081E090E0F6019383828310E000E0C801A9
:100BD000DF91CF911F910F91FF90EF90DF90CF9019
:100BE000BF90AF909F908F900895CF93DF931F9207
:100BF000CDB7DEB76983DC01ED91FC910280F38112
:100C0000E02D41E050E0BE016F5F7F4F09950F90EE
:100C1000DF91CF91089583E08093E9008091F20005
:100C2000882319F08AE38093E80008950E946F02F8
:100C300090E00895CF93DF931F92CDB7DEB7FC010C
:100C40008485958597FD08C02FEF3FEF3587248772
:100C50000F90DF91CF910895CE0101960E94450239
:100C6000019719F4898190E0F3CF8FEF9FEFF0CFD8
:100C70000F931F93CF93DF931F92CDB7DEB78C01F5
:100C8000FC018485958597FF0BC0CE0101960E94DB
:100C90004502019771F4898190E0F8019587848776
:100CA000F801848595850F90DF91CF911F910F9169
:100CB00008958FEF9FEFF1CFFC018485958597FD17
:100CC0000BC09FB7F89482E08093E9008091F20016
:100CD0009FBF90E0019608959FB7F89482E08093BB
:100CE000E9008091F2009FBF90E00895FC018081AF
:100CF000869F080E80E0811D80838181869F080E7B
:100D000080E0811D81838281869F080E80E0811DA5
:100D100082831124CF010895AF92BF92CF92DF92C8
:100D2000EF92FF920F931F93CF93DF9300D01F9208
:100D3000CDB7DEB75A0119821A821B82882361F16E
:100D40008B01E1E0F0E0E82EF12CD8012D918D012E
:100D50002223F1F06F01B1E0CB1AD108D501AC0D1F
:100D6000BD1D4C914423A1F030E02F5F3F4FD701D0
:100D70000E94341FA42FB0E011969B01AC010E9489
:100D8000FF1EA1E0B0E0AC0FBD1FAC0DBD1D8C93EC
:100D90003196E430F105C9F669817A818B810F9033
:100DA0000F900F90DF91CF911F910F91FF90EF90D7
:100DB000DF90CF90BF90AF900895FC0180E291E06A
:100DC00091838083138212828FEF8683878380874B
:100DD00081878287838781E0848785871786168647
:100DE00080E797E1918B808B83E090E0938B828BFF
:100DF000158A148A1582148280916D0290916E0278
:100E0000892B21F4F0936E02E0936D02A091B8015A
:100E1000B091B901109721F01596FC93EE931497B9
:100E2000F093B901E093B801089581E090E008954E
:100E300008958EBD00000DB407FEFDCF8EB5089558
:100E40008CBD9DBD08950F931F93CF93DF93209189
:100E5000B7012F5F322F37703093B70120FF2BC0BF
:100E600020E831FD2064347009F02062205FFC012D
:100E7000EC01239600E011E06785662329F070E01D
:100E8000C8010E94431F6F5F6187822F869F080EF3
:100E900080E0811D1124811110C01682662311F09B
:100EA000615061873196EC17FD0731F7DF91CF91E3
:100EB0001F910F91089520E0D4CF81508683EECF0B
:100EC0004F925F927F928F929F92AF92BF92CF92FA
:100ED000DF92EF92FF920F931F93CF93DF932C013A
:100EE000EB010E946803F20126893789621B730BAC
:100EF0006A307105B0F3F8948A819B81181619063F
:100F00000CF0CDC1E881F98161B3862E689480F838
:100F100031B33E7F31BBDA848F812D2D281B822F88
:100F20002F834C85042E000C550BAA81BB81788938
:100F3000FF84E9887F5FF394E3949E819884B98469
:100F4000AB841181C12C6C2D0C2D2C2D21811127EE
:100F500088942111280F08F42FEF8195889470FD53
:100F6000120F1795889471FD120F1795889472FDD2
:100F7000120F1795889473FD120F1795889474FDBE
:100F8000120F1795889475FD120F1795889476FDAA
:100F9000120F1795889477FD120F17958894622F7A
:100FA0007111612F8D0D162F002C81BA00C017FF13
:100FB00031BB20816627889400C000C0002C31BB63
:100FC0002111290F00C0002C81BA00C016FF31BBCF
:100FD00008F42FEF9195889400C000C0002C31BB1D
:100FE000F0FC620F00C0002C81BA00C015FF31BBBD
:100FF00067958894F1FC620F00C000C0002C31BBE3
:101000006795889400C0002C81BA00C014FF31BBE2
:10101000F2FC620F6795889400C000C0002C31BBC1
:10102000F3FC620F00C0002C81BA00C013FF31BB7B
:1010300067958894F4FC620F00C000C0002C31BB9F
:101040006795889400C0002C81BA00C012FF31BBA4
:10105000F5FC620F6795889400C000C0002C31BB7E
:10106000F6FC620F00C0002C81BA00C011FF31BB3A
:1010700067958894F7FC620F00C000C0002C31BB5C
:101080006795889400C0002C81BA00C010FF31BB66
:10109000122FF110162F9B0D00C000C0002C31BB89
:1010A00000C000C0002C81BA00C017FF31BB2281F4
:1010B0006627889400C000C0002C31BB2111290D87
:1010C00000C0002C81BA00C016FF31BB08F42FEF1E
:1010D000E40FF51F00C000C0002C31BBE0FC620F24
:1010E00000C0002C81BA00C015FF31BB6795889401
:1010F000E1FC620F00C000C0002C31BB67958894F2
:1011000000C0002C81BA00C014FF31BBE2FC620FAA
:101110006795889400C000C0002C31BBE3FC620FCF
:1011200000C0002C81BA00C013FF31BB67958894C2
:10113000E4FC620F00C000C0002C31BB67958894AE
:1011400000C0002C81BA00C012FF31BBE5FC620F69
:101150006795889400C000C0002C31BBE6FC620F8C
:1011600000C0002C81BA00C011FF31BB6795889484
:10117000E7FC620F00C000C0002C31BB679588946B
:1011800000C0002C81BA00C010FF31BB122FE1104B
:10119000162F919400C000C0002C31BB9A0C00C0E7
:1011A00000C081BA00C017FF31BB21816627889437
:1011B00000C000C0002C31BB2111280F00C0002C42
:1011C00081BA00C016FF31BB08F42FEF81958894D7
:1011D00000C000C0002C31BB70FD620F00C0002CAD
:1011E00081BA00C015FF31BB6795889471FD620F0D
:1011F00000C000C0002C31BB6795889400C0002C53
:1012000081BA00C014FF31BB72FD620F67958894EC
:1012100000C000C0002C31BB73FD620F00C0002C69
:1012200081BA00C013FF31BB6795889474FD620FCB
:1012300000C000C0002C31BB6795889400C0002C12
:1012400081BA00C012FF31BB75FD620F67958894AB
:1012500000C000C0002C31BB76FD620F00C0002C26
:1012600081BA00C011FF31BB6795889477FD620F8A
:1012700000C000C0002C31BB6795889400C0002CD2
:1012800081BA00C010FF31BB122F7111162F8D0DC6
:1012900000C000C0002C31BB119709F086CEEA8156
:1012A000FB812EE130E0DF010E945D1F30E020E095
:1012B000A901AAE9EA9F0E0E411DFA9F400D511D9A
:1012C00011244F0F511DDC01CB01840F951FA11D6F
:1012D000B11D893E43E09407A105B10508F434C06F
:1012E000885E9340A109B10942E0B695A79597950C
:1012F00087954A95D1F747E0849F080E211D949F5A
:10130000200D311D1124290F311D6091B60170E0AF
:10131000860F971F820F931F409131025091320226
:101320006091330270913402292F3327420F531FEB
:10133000611D711D4093310250933202609333025C
:10134000709334028093B60178940E946803F2018E
:10135000778B668BDF91CF911F910F91FF90EF906C
:10136000DF90CF90BF90AF909F908F907F905F90D5
:101370004F900895809A08954F925F927F928F9236
:101380009F92AF92BF92CF92DF92EF92FF920F9314
:101390001F93CF93DF932C01EB010E946803F201AE
:1013A00026893789621B730B6A307105B0F3F89494
:1013B0008A819B81181619060CF0CDC1E881F9814C
:1013C0006BB1862E689480F83BB13E7F3BB9DA84DE
:1013D0008F812D2D281B822F2F834C85042E000CEE
:1013E000550BAA81BB817889FF84E9887F5FF394DC
:1013F000E3949E819884B984AB841181C12C6C2DB7
:101400000C2D2C2D2181112788942111280F08F4EF
:101410002FEF8195889470FD120F1795889471FDB8
:10142000120F1795889472FD120F1795889473FD0B
:10143000120F1795889474FD120F1795889475FDF7
:10144000120F1795889476FD120F1795889477FDE3
:10145000120F17958894622F7111612F8D0D162F21
:10146000002C8BB800C017FF3BB9208166278894F9
:1014700000C000C0002C3BB92111290F00C0002C76
:101480008BB800C016FF3BB908F42FEF91958894F4
:1014900000C000C0002C3BB9F0FC620F00C0002C63
:1014A0008BB800C015FF3BB967958894F1FC620FBB
:1014B00000C000C0002C3BB96795889400C0002C88
:1014C0008BB800C014FF3BB9F2FC620F679588949B
:1014D00000C000C0002C3BB9F3FC620F00C0002C20
:1014E0008BB800C013FF3BB967958894F4FC620F7A
:1014F00000C000C0002C3BB96795889400C0002C48
:101500008BB800C012FF3BB9F5FC620F6795889459
:1015100000C000C0002C3BB9F6FC620F00C0002CDC
:101520008BB800C011FF3BB967958894F7FC620F38
:1015300000C000C0002C3BB96795889400C0002C07
:101540008BB800C010FF3BB9122FF110162F9B0D66
:1015500000C000C0002C3BB900C000C0002C8BB8FC
:1015600000C017FF3BB922816627889400C000C0E5
:10157000002C3BB92111290D00C0002C8BB800C0F4
:1015800016FF3BB908F42FEFE40FF51F00C000C0B1
:10159000002C3BB9E0FC620F00C0002C8BB800C0EF
:1015A00015FF3BB967958894E1FC620F00C000C04D
:1015B000002C3BB96795889400C0002C8BB800C004
:1015C00014FF3BB9E2FC620F6795889400C000C02D
:1015D000002C3BB9E3FC620F00C0002C8BB800C0AC
:1015E00013FF3BB967958894E4FC620F00C000C00C
:1015F000002C3BB96795889400C0002C8BB800C0C4
:1016000012FF3BB9E5FC620F6795889400C000C0EB
:10161000002C3BB9E6FC620F00C0002C8BB800C068
:1016200011FF3BB967958894E7FC620F00C000C0CA
:10163000002C3BB96795889400C0002C8BB800C083
:1016400010FF3BB9122FE110162F919400C000C07B
:10165000002C3BB99A0C00C000C08BB800C017FF2B
:101660003BB921816627889400C000C0002C3BB99B
:101670002111280F00C0002C8BB800C016FF3BB909
:1016800008F42FEF8195889400C000C0002C3BB96E
:1016900070FD620F00C0002C8BB800C015FF3BB975
:1016A0006795889471FD620F00C000C0002C3BB9A3
:1016B0006795889400C0002C8BB800C014FF3BB91C
:1016C00072FD620F6795889400C000C0002C3BB982
:1016D00073FD620F00C0002C8BB800C013FF3BB934
:1016E0006795889474FD620F00C000C0002C3BB960
:1016F0006795889400C0002C8BB800C012FF3BB9DE
:1017000075FD620F6795889400C000C0002C3BB93E
:1017100076FD620F00C0002C8BB800C011FF3BB9F2
:101720006795889477FD620F00C000C0002C3BB91C
:101730006795889400C0002C8BB800C010FF3BB99F
:10174000122F7111162F8D0D00C000C0002C3BB957
:10175000119709F086CEEA81FB812EE130E0DF01AE
:101760000E945D1F30E020E0A901AAE9EA9F0E0E69
:10177000411DFA9F400D511D11244F0F511DDC01D9
:10178000CB01840F951FA11DB11D893E43E0940735
:10179000A105B10508F434C0885E9340A109B109E0
:1017A00042E0B695A795979587954A95D1F747E07A
:1017B000849F080E211D949F200D311D1124290F97
:1017C000311D6091B60170E0860F971F820F931F45
:1017D0004091310250913202609133027091340293
:1017E000292F3327420F531F611D711D4093310272
:1017F0005093320260933302709334028093B601A7
:1018000078940E946803F201778B668BDF91CF9109
:101810001F910F91FF90EF90DF90CF90BF90AF900E
:101820009F908F907F905F904F900895509A089569
:101830006F927F928F92CF92DF92EF92FF920F93EF
:101840001F93CF93DF93CDB7DEB762970FB6F894AF
:10185000DEBF0FBECDBF8C016B017A01822FA801C4
:10186000475F5F4FB8016A5F7F4F0E948C063B0164
:10187000882ED8011C962C91C701F7FE04C088273A
:1018800099278E199F09DA82C9829C838B839E8354
:101890008D83688A798A8A8A213049F5CE0101963A
:1018A0000E94230783E08D871F861E86F7FE02C0F5
:1018B0008DEF8D87D801ED91FC910088F189E02DA5
:1018C000BE016F5F7F4FC801099562960FB6F8940D
:1018D000DEBF0FBECDBFDF91CF911F910F91FF9063
:1018E000EF90DF90CF908F907F906F9008951C863F
:1018F0001B861A86198618861F82D4CFCF92DF9254
:10190000EF92FF920F931F93CF93DF93CDB7DEB784
:1019100062970FB6F894DEBF0FBECDBF8C016B018E
:101920007A01822FA801475F5F4FB8016A5F7F4F3E
:101930000E948C069B01482FD8011C968C91DA825C
:10194000C982FC82EB82FE82ED82288B398B4A8B26
:10195000813009F5CE0101960E9423071D861F865E
:101960001E86D801ED91FC910088F189E02DBE0121
:101970006F5F7F4FC801099562960FB6F894DEBF7E
:101980000FBECDBFDF91CF911F910F91FF90EF90D0
:10199000DF90CF9008951C861B861A8619861886BC
:1019A0001F82DCCFE0E1F2E06083718382832383D6
:1019B00034834583089590E080E00895FC016487B6
:1019C0000895FC01848590E00895FC018685978543
:1019D00008950F931F93FC0100E012E12AE730E025
:1019E00090E0401751076207730740F4369527953A
:1019F000179507959F5F9630A1F797E0292F206AEA
:101A0000269520839095917091831F910F91089551
:101A1000FF920F931F93CF93DF9300D0CDB7DEB724
:101A2000F82E04ED12E0F801428953896489758922
:101A3000CE0101960E94E90C89819A810E942007BB
:101A400060E0F80180890E94090383E00E94190781
:101A50008F2D0E94190780E00E941907F82E61E07F
:101A6000F80180890E9409038F2D0F900F90DF915C
:101A7000CF911F910F91FF900895DF92EF92FF9207
:101A80000F931F93CF93DF9300D0CDB7DEB7D82E3F
:101A9000E62EF42E04ED12E0F801428953896489A0
:101AA0007589CE0101960E94E90C89819A810E9474
:101AB000200760E0F80180890E94090385E00E9408
:101AC00019078D2D0E9419078E2D0E9419078F2D41
:101AD0000E94190761E0F80180890E9409030F90B4
:101AE0000F90DF91CF911F910F91FF90EF90DF90BA
:101AF0000895CF93DF93C82F0E94BF03D62F4C2F9A
:101B000060EE8FE00E943D0D8EE00E94080D807E09
:101B1000C81749F00E94BF036D1B693C80F381E048
:101B2000DF91CF91089580E0FBCFCF93DF93C82F53
:101B30008EE00E94080D807E8032F9F4C032E9F018
:101B40008BE20E94080DD82FD07486FD05C040E4BA
:101B500060E48BE20E943D0D40E460E48CE20E9470
:101B60003D0D80E60E94790D811111C0D11105C093
:101B700040E060E48BE20E943D0D40E060E48CE2D6
:101B80000E943D0D8C2FDF91CF910C94790D81E057
:101B9000DF91CF910895DF92EF92FF920F931F9301
:101BA000CF93DF9300D0CDB7DEB7182FD62EF72E08
:101BB000E42E4091E6025091E7026091E8027091B4
:101BC000E902CE0101960E94E90C89819A810E9466
:101BD000200760E08091E4020E94090382E00E94F5
:101BE0001907812F0E9419070D2D1F2DE00EF12ED0
:101BF000F11C0E151F0531F0F80181918F010E9433
:101C00001907F7CF61E08091E4020E9409030F9069
:101C10000F90DF91CF911F910F91FF90EF90DF9088
:101C20000895CF92DF92EF92FF92CF93DF9300D08F
:101C300000D0CDB7DEB7E32FFF276A01EE24FF24E3
:101C40002C83EB839C2D613009F5990F990F990F27
:101C5000907E2C2D23702860922B9A83A60125E07C
:101C6000569547952A95E1F7498344E0BE016F5F99
:101C70007F4F0E94CB0D0F900F900F900F90DF9130
:101C8000CF91FF90EF90DF90CF9008959295990FAC
:101C9000907E9A83A60193E0569547959A95E1F731
:101CA000E3CFEF92FF920F931F93CF93DF9300D078
:101CB000CDB7DEB7E82EF62E04ED12E0F80142892A
:101CC000538964897589CE0101960E94E90C898146
:101CD0009A810E94200760E0F80180890E94090330
:101CE00082E00E9419078E2D0E9419078F2D0E94F5
:101CF000190761E0F80180890E9409030F900F9095
:101D0000DF91CF911F910F91FF90EF9008952F9247
:101D10003F924F925F926F927F928F929F92AF927B
:101D2000CF92DF92EF92FF920F931F93CF93DF93A7
:101D300000D000D0CDB7DEB70E9468032B013C0174
:101D40008090100190901101A09012011E0124E0DA
:101D5000220E311C89829A82AB82CE0101966C01DF
:101D6000F82E0D2DF60111916F01812F0E94080DA3
:101D700083FD14C01F5FE12C0E946803DC01CB01CE
:101D800084199509A609B709F2E0EF120EC0843C48
:101D90009940A105B105F0F206E07DC0C214D3045C
:101DA00009F710E072E0E72EE7CF843C9940A105E7
:101DB000B10590F74091D9026AED72E085E0810F9C
:101DC0000E94CB0D8091E202813029F48091D902EA
:101DD00080648093D9026091D90284E0810F0E94CF
:101DE000510E4091D5025091D6026091D702709168
:101DF000D8028091D4028130D9F54C835B83AB014A
:101E000066277727842F83708860942F990F990F06
:101E1000990F907E892B8A8365E0569547956A9540
:101E2000E1F7498344E06F2D702F812F0E94CB0D85
:101E3000115048E068E0812F0E943D0D0E94680328
:101E40006B017C01812F0E94080D082F08700E94F1
:101E50006803DC01CB018C199D09AE09BF09002381
:101E6000A9F0843C9940A105B10560F307E013C0D7
:101E7000CA0123E0969587952A95E1F789834295D3
:101E8000440F407E4A831C821B82CCCF843C994005
:101E9000A105B10558F7802F0F900F900F900F906C
:101EA000DF91CF911F910F91FF90EF90DF90CF9036
:101EB000AF909F908F907F906F905F904F903F90EA
:101EC0002F900895EF920F93CF93DF9300D0CDB76B
:101ED000DEB7998180FB90F960FB91F940FB92F9A4
:101EE00020FB93F999838A8100FB81F9E0FA80F95C
:101EF0008A8382E09AE1A0E5B0E08093D5029093D6
:101F0000D602A093D702B093D8021092E20281E0E9
:101F10008093D40282E08093D902FE013196AAED2B
:101F2000B2E0CE01099621912D93E817F907D9F770
:101F30000E94870E60E0811101C061E08AE00F908D
:101F40000F90DF91CF910F91EF900C940903DF92E6
:101F5000EF92FF920F931F93CF93DF9300D0CDB7F3
:101F6000DEB7182FD62EF72EE42E4091E6025091C0
:101F7000E7026091E8027091E902CE0101960E94A9
:101F8000E90C89819A810E94200760E08091E40237
:101F90000E94090383E00E941907812F0E941907FC
:101FA0000D2D1F2DE00EF12EF11C0E151F0539F021
:101FB00080E00E941907F80181938F01F6CF61E05C
:101FC0008091E4020E9409030F900F90DF91CF915E
:101FD0001F910F91FF90EF90DF9008950F931F9343
:101FE000CF93DF9300D000D0CDB7DEB7182F10927B
:101FF000D4021092D5021092D6021092D7021092FB
:10200000D80244E0BE016F5F7F4F0E94A70F2A8174
:10201000898138E0839FC0011124422F50E065E0A0
:10202000559547956A95E1F7840F951F092E000C89
:10203000AA0BBB0B8093D5029093D602A093D70234
:10204000B093D80223FF29C032E0880F991FAA1F3E
:10205000BB1F3A95D1F72370820F911DA11DB11DB1
:10206000BA2FA92F982F88272B81820F911DA11D90
:10207000B11DBA2FA92F982F88272C81820F911D6F
:10208000A11DB11D8093D5029093D602A093D702D3
:10209000B093D80281E08093D4028FEF810F0E9429
:1020A000080D082F84E0810F0E94080D03FF16C061
:1020B00091E09093E202482F4F704093D9026AED6D
:1020C00072E085E0810F0E94A70F0F900F900F9094
:1020D0000F90DF91CF911F910F9108951092E2021E
:1020E000EACF42E050E068E771E083E792E00C94C9
:1020F00070050F931F93CF93DF938C01D0E0C0E066
:10210000F801EC0FFD1F6491662341F083E792E034
:102110000E94F505892B11F02196F2CF0E947110D3
:102120008C0F9D1FDF91CF911F910F910895CF923A
:10213000DF92EF92FF92CF93DF93C82F6A017B016A
:102140008CE194E00E94791080E80E94950DD82FD0
:1021500088EF93E0D1111CC0C330B9F118F5C1303C
:1021600051F1C23069F1A701960161E080E00E945F
:10217000110E8091E5020E94950DD82F81EA93E01F
:10218000DD2331F086ED93E00E9479108CEB93E033
:102190000E9479108D2FDF91CF91FF90EF90DF900B
:1021A000CF900895C430B1F0C530E9F6A70196018B
:1021B00061E088E1DCCFA701960161E084E0D7CF40
:1021C000A701960161E088E0D2CFA701960161E006
:1021D00080E1CDCFA701960161E084E1C8CFCF9324
:1021E000DF93D82F8BE893E00E94791080E80E945B
:1021F000950DC82F84E693E0C11119C02FEF3FEF72
:102200004FEF5FE161E080E2D11184E20E94110EA4
:102210008091E5020E94950DC82F81E193E0CC23C7
:1022200031F082E493E00E9479108AE293E00E9408
:1022300079108C2FDF91CF910895CF93DF93FC011C
:1022400001900020E9F73197AF01481B590BBC0101
:1022500083E792E00E947005EC010E9471108C0FE0
:102260009D1FDF91CF9108950E948F231F920F929F
:102270000FB60F9211242F933F938F939F93AF9399
:10228000BF938091310290913202A0913302B091BC
:1022900034023091300223E0230F2D3758F5019698
:1022A000A11DB11D20933002809331029093320220
:1022B000A0933302B093340280913502909136029C
:1022C000A0913702B09138020196A11DB11D8093F3
:1022D000350290933602A0933702B0933802BF9133
:1022E000AF919F918F913F912F910F900FBE0F90C3
:1022F0001F90189526E8230F0296A11DB11DD2CF7D
:102300001F920F920FB60F9211248F939F9380917B
:10231000E1009091E100937F9093E10083FF0FC073
:102320001092E90091E09093EB001092EC0092E3A0
:102330009093ED001092460298E09093F00082FF97
:1023400022C093E09093E9009091F200992319F054
:102350009AE39093E8009091BF01992341F0909106
:10236000BF0191509093BF01911101C05D9A90916E
:102370004502992341F09091450291509093450276
:10238000911101C0289A84FF18C08091E2008E7ECE
:1023900081608093E2008091E1008F7E8093E10074
:1023A0008091C0018E7E80618093C0019F918F914A
:1023B0000F900FBE0F901F90189580FFF7CF809160
:1023C000E2008E7E80618093E2008091E1008E7E4B
:1023D0008093E1008091C0018E7E8160E5CF1F92E5
:1023E0000F920FB60F921124CF92DF92EF92FF92CD
:1023F0000F931F932F933F934F935F936F937F930D
:102400008F939F93AF93BF93EF93FF93CF93DF93FC
:10241000CDB7DEB76C97DEBFCDBF1092E9008091DB
:10242000E80083FF25C068E0CE0145960E94630561
:1024300082EF8093E8008D8987FF39C09091E80092
:1024400090FFFCCF982F907609F034C19E894F8978
:10245000588D2F89F88C911131C0803861F58091A9
:10246000C1018093F1001092F1008EEF8093E8009B
:102470006C960FB6F894DEBF0FBECDBFDF91CF9143
:10248000FF91EF91BF91AF919F918F917F916F914C
:102490005F914F913F912F911F910F91FF90EF907E
:1024A000DF90CF900F900FBE0F901F9018959EEF6A
:1024B0009093E800C7CF1092F100D5CF913059F436
:1024C0008111D3CF4130510581F68091C1018D7FBB
:1024D0008093C101CACF933049F48111C6CF4130F6
:1024E000510519F68091C1018260F2CF953041F417
:1024F0008091E80080FFFCCF20682093E300B5CFF7
:10250000963009F0A9C00B8D1C8D22E01092E900D5
:102510001092BD011092BC01F2122EC01092BB01AC
:102520001092BA010E9432051F8299E09983FA82C3
:1025300091E09E8390EA98879AEF99872091BC0159
:102540003091BD01275F3F4F3C832B838D831092D9
:10255000E9001092BD011092BC011093BB010093E1
:10256000BA0149E050E0BE016F5F7F4F80E00E94FA
:102570000C050E94320579CF1093BB010093BA017C
:102580000E948002DC0112960D911C91011511052B
:1025900009F451C1D801ED91FC910480F581E02D41
:1025A000BE016B5E7F4FC8010995009709F03EC1DF
:1025B000F80100851185EACFF3E0FF120EC08F8984
:1025C000882309F440C0823061F440E862E18DEA7A
:1025D00091E00E942114811148CF81E28093EB00A9
:1025E00047CF813029F440E868E084EA91E0F1CFF8
:1025F000833099F70E948002DC011296ED90FC90E6
:102600008E010F5F1F4F6801E114F10479F0D701CB
:10261000ED91FC910680F781E02DB801C701099585
:10262000080F111DF701E084F184EECFD8011C9250
:10263000F60101900020E9F73197BF016C197D097F
:1026400040E0C601C6CF6EE871E0FB01449150E066
:1026500080E80E940C0509CF973009F4BECF98306E
:1026600021F481E08093F10000CF993009F0FDCE94
:10267000837009F0B2CFE1E3F1E081E031E096E36D
:102680002191222371F08093E9003093EB00DF0168
:1026900011972C912093EC009093ED008F5F873081
:1026A00079F78EE78093EA001092EA008F89809391
:1026B0004602DBCE8B8D9C8D1092E9001092BD01FD
:1026C0001092BC019093BB018093BA01898D811156
:1026D00092C08E899D89913A49F4813209F07DCF6B
:1026E00047E050E064E071E080E0B3CF913209F060
:1026F00074CF833269F48F89988DB0E0A0E0809325
:10270000000190930101A0930201B0930301ADCEAB
:10271000803269F48091E80082FFFCCF67E084E0BA
:1027200091E00E9463058BEF8093E8009ECE823299
:1027300009F09BCE8F8980930B01EEEFFFE7859127
:1027400094918B3F9C4D51F1E0E0F8E080910401C1
:1027500090910501A0910601B0910701803B944042
:10276000A105B105F1F480910B0180FD1AC0EE3F87
:102770008AE0F80789F587E797E79183808380915E
:1027800060008093BE0188E19BE00FB6F894A895A5
:10279000809360000FBE9093600067CEEEEFFAE08A
:1027A000D5CF808191818737974709F05ECEA89574
:1027B000809160008861809360008091BE01809369
:1027C0006000EE3F2AE0F20789F08091FE0A9091C6
:1027D000FF0A9183808349CE808191818737980752
:1027E00051F29093FF0A8093FE0AC5CF1092FF0A20
:1027F0001092FE0A3ACE0E948002DC0112960D91E0
:102800001C910115110509F4E8CED801ED91FC9158
:102810000190F081E02DBE016B5E7F4FC8010995EC
:10282000811123CEF80100851185EBCF181619060A
:102830000CF41BCED2CEF1E0FF12BECE62E971E005
:1028400004CFEF92FF920F931F93CF93DF93F82E55
:10285000192FE62E042F81E0860F880F0E94DE04D8
:1028600083E00E94DE04CF2DD12FEC0EFD2EF11C53
:10287000CE15DF05B9F007FF13C0FE0184910E9459
:10288000DE04182F80E00E94DE048123219681114E
:10289000EFCFDF91CF911F910F91FF90EF900895AF
:1028A0008881EDCF81E0F5CFCF93DF93E3E7F2E0CE
:1028B0001382128288EE93E0A0E0B0E084839583D7
:1028C000A683B7838AE691E0918380838FEF9FEFA1
:1028D00095878487E3ECF2E080831282118214866C
:1028E00013868FEF9FEFDC0187839087A187B287E4
:1028F0001382148215821682C4EDD2E080E896E934
:10290000A8E9B0E08A8B9B8BAC8BBD8B84E1888B74
:1029100061E00E94090361E088890E9437030E94F8
:10292000BF036093D0027093D1028093D202909340
:10293000D302DF91CF910895CF93DF93CDB7DEB768
:10294000E0970FB6F894DEBF0FBECDBF789484B584
:10295000826084BD84B5816084BD85B5826085BD9B
:1029600085B5816085BD80916E00816080936E0029
:10297000109281008091810082608093810080911B
:1029800081008160809381008091800081608093CC
:1029900080008091910082608093910080919100ED
:1029A000816080939100809190008160809390007D
:1029B0008091C10084608093C1008091C1008260D9
:1029C0008093C1008091C10081608093C10080919B
:1029D000C30081608093C3008091C00082608093B7
:1029E000C0008091C20081608093C20080917A0013
:1029F000846080937A0080917A00826080937A006C
:102A000080917A00816080937A0080917A0080685A
:102A100080937A00109246021092C1011092C00178
:102A20008091D70081608093D70080EA8093D8009E
:102A300089B5806189BD89B5826089BD09B400FE10
:102A4000FDCF61E070E080E090E00E948D03809116
:102A5000D8008F7C80618093D8008091E000807FD7
:102A60008093E0008091E1008E7E8093E1008DE014
:102A70008093E200559A209A8FEF9FEF9093800207
:102A800080937F02E0ECF1E0E49190917B008E2F47
:102A9000880F880F80729F7D892B80937B00E77061
:102AA000E064E0937C0080917A00806480937A00F7
:102AB00080917A0086FDFCCF80917800609179004A
:102AC000762F682F072E000C880B990B6115710566
:102AD0008105910511F00E94D71E0E94881EC12C0D
:102AE000D12C7601CA94A70196010E94E01E709332
:102AF0000602609305020E94881EA70196010E94AB
:102B0000E01E709304026093030261E084E10E947E
:102B1000370361E084E10E94090362E086E10E94DC
:102B2000370362E085E10E9437038091DA01811169
:102B300011C082EC91E00E94DD061092D901109242
:102B4000D8018BE391E09093C3018093C20181E0AF
:102B50008093DA0182EC91E00E94BA0980E192E070
:102B60009093C5018093C40182E090E09093D101DD
:102B70008093D0018091C6029091C702A091C802B3
:102B8000B091C902843C29E09207A105B10520F467
:102B900084EC99E0A0E0B0E08093C6029093C70275
:102BA000A093C802B093C9028091FA01811111C0AB
:102BB00082EE91E00E94DD061092F9011092F80178
:102BC00081E591E09093E3018093E20181E08093BD
:102BD000FA0182EE91E00E94160C87E092E0909359
:102BE000E5018093E40183E090E09093F10180930C
:102BF000F0018091C6029091C702A091C802B091E5
:102C0000C902843C39E09307A105B10520F484ECA6
:102C100099E0A0E0B0E08093C6029093C702A09331
:102C2000C802B093C90276ECA72E72E0B72EE5EE8B
:102C3000EE2EE2E0FE2EF0E4DF2ECFB6F894809187
:102C40000202811125C0F5018491F7019491E82FCA
:102C5000F0E0EE0FFF1FE557FD4FA591B4918C9169
:102C6000982321F461E081E10E94090361E081E1A0
:102C70000E9437038CB580618CBD8CB580648CBD9F
:102C800061E08FE00E94370361E080E10E9437033A
:102C9000809102028F5F80930202CFBE4091E602D4
:102CA0005091E7026091E8027091E902CE0101962D
:102CB0000E94E90C89819A810E94200760E080913E
:102CC000E4020E94090380EC0E94190761E08091F0
:102CD000E4020E94090365E070E080E090E00E9459
:102CE0008D03D092E50280E80E94950D882379F04B
:102CF00087E392E00E9479108EE592E00E947910BD
:102D000068EE73E080E090E00E948D0396CF8FE044
:102D100092E00E94791060E08AE20E94510E6AEC13
:102D200089E20E94510E61E888E20E94510E82EF12
:102D300091E00E94791020E030E0A90161E080E29A
:102D40000E94110E20E030E0A90161E084E20E94BF
:102D5000110E20E030E0A90161E080E00E94110E38
:102D600020E030E0A90160E084E00E94110E20E044
:102D700030E0A90161E088E00E94110E20E030E01F
:102D8000A90160E080E10E94110E20E030E0A9017D
:102D900061E084E10E94110E20E030E0A90160E0D2
:102DA00088E10E94110E10E360E0812F0E94510E15
:102DB00060E080E1810F0E94510E60E080E2810FAF
:102DC0000E94510E1F5F1E3379F760E080E60E947B
:102DD000510E60E080E70E94510E63E08BE20E949A
:102DE000510E6CE38CE00E94510E60E08DE00E9479
:102DF000510E44E064E680E60E943D0D40E060E64E
:102E000080E70E943D0D8091E5020E94950D882388
:102E100009F404C68CEC91E06DCF10921002109270
:102E200011021092120210921302109214021092C8
:102E300015021092070210920802109209021092D5
:102E40000A0210920B0210920C0210920D021092C4
:102E50000E0210920F028091C3020E94CB0368EC15
:102E600070E080E090E00E948D032091130130918A
:102E70001401409115012BA73CA74DA73091630188
:102E80003C8F409164014D8F509165015E8F398F69
:102E90004A8F252E8091160190911701A09118015B
:102EA0008EA79FA7A8AB33243394DE011196BB8B6A
:102EB000AA8BFE013996FD8BEC8B0E94BF034B0160
:102EC0005C018092D0029092D102A092D202B09284
:102ED000D3020E94BF030E94C52020E030E048ECEE
:102EE00053E40E94EA1F0E94D6226F8F78A389A321
:102EF0009AA30E94BF030E94C52020E030E048EC66
:102F000053E40E94EA1F0E94D6226BA37CA38DA3E8
:102F10009EA386E10E94E0027C0111E0892B09F466
:102F200010E085E10E94E0026C01F1E0FB8F892B4B
:102F300009F41B8E10922F0210922E0280912D0206
:102F4000811164C08091290290912A02A0912B02E4
:102F5000B0912C0224013501481A590A6A0A7B0AE9
:102F6000EF2891F1D301C2014597A109B109833B33
:102F70009105A105B10578F4E090270200912602A1
:102F800020E040E060E081E00E94620F8BE791E08A
:102F90000E941D1145C0D301C201895C9109A1099C
:102FA000B1098F3B9241A105B10570F4E090270271
:102FB0000091260220E041E060E080E00E94620F84
:102FC00081E891E00E941D1199E8491693E15906A4
:102FD0006104710428F1E09027020091260220E0AC
:102FE00041E060E080E00E94620FD501C40180559D
:102FF0009441A109B1098093290290932A02A093D8
:103000002B02B0932C0288E891E0C2CFEF2841F464
:103010008092290290922A02A0922B02B0922C0256
:1030200010932D0280912502811164C080912102AC
:1030300090912202A0912302B09124022401350133
:10304000481A590A6A0A7B0ACD2891F1D301C201B4
:103050004597A109B109833B9105A105B10578F414
:10306000E09027020091260220E040E061E080E04D
:103070000E94620F87E991E00E941D1145C0D301B3
:10308000C201895C9109A109B1098F3B9241A10557
:10309000B10570F4E09027020091260221E040E0A3
:1030A00060E080E00E94620F8EE991E00E941D11B5
:1030B000A9E84A16A3E15A066104710428F1E090D8
:1030C00027020091260221E040E060E080E00E94BB
:1030D000620F40E5841A44E1940AA108B108809285
:1030E000210290922202A0922302B092240286EA48
:1030F00091E0C2CFCD2841F4809221029092220229
:10310000A0922302B09224025B8D5093250281E0AD
:103110000E94E002892B09F0AFC04091E602509175
:10312000E7026091E8027091E902CE0101960E94E7
:10313000E90C89819A810E94200760E08091E40275
:103140000E94090380EA0E94190780E00E94190783
:10315000182F61E08091E4020E94090310FF50C023
:1031600081E60E94EE0F40E061E08CE20E943D0D9E
:103170008091D402882389F08091D5029091D60263
:10318000A091D702B091D802B0688093D5029093F5
:10319000D602A093D702B093D8028091E20288238E
:1031A00089F08091D5029091D602A091D702B0917A
:1031B000D802B0648093D5029093D602A093D70230
:1031C000B093D8028091D5029091D602A091D702F7
:1031D000B091D8028FA398A7A9A7BAA78091D902C6
:1031E000AAEDB2E0FE01319690E09F014A895B8929
:1031F000241B350B281739075CF42D912193F5CF4B
:1032000011FF06C081E70E94EE0F40E062E0ADCF03
:103210008FA198A5A9A5BAA5BF71811552E0950700
:1032200050E2A507B10509F0C1C082E092E0A0E537
:10323000B0E08093D5029093D602A093D702B093CA
:10324000D8021092E2023092D40284E08093D90234
:10325000FE013196AAEDB2E081918D932C893D89D2
:103260002E173F07C9F70E94870E60E0811101C049
:1032700061E08AE00E9409030E94BF0300911D02E1
:1032800010911E0220911F0230912002601B710BD1
:10329000820B930B653671058105910510F0309214
:1032A0002F0280912702811107C08091260281118F
:1032B00003C080912802811130922E0280912F024A
:1032C000882309F424C28FEF89831A821B820E940B
:1032D000BF030E94C52020E030E048E452E40E9491
:1032E000EA1F6B017C010E94D62220E030E040E81A
:1032F00050E40E9486224B015C0120E030E040E473
:1033000050E4C701B6010E94EA1F0E94D62220E0C5
:1033100030E0A9010E949E2120E030E040E85FE318
:1033200018161CF020E030E0A901C501B4010E948C
:10333000192220E030E04FE753E40E9419220E9456
:103340009620CE0101960E947606FC018081918133
:10335000A28189839A83AB83809310029093110298
:10336000A09312028093130290931402A09315026B
:1033700010920702109208021092090210920A029B
:1033800010920B0210920C0210920D0210920E027B
:1033900010920F028091C3020E94CB0380E090E064
:1033A000892B09F48ACD0E9400007DCD811533E080
:1033B000930730E2A307B10509F0A1C00E94BF0343
:1033C00060931D0270931E0280931F02909320024F
:1033D00019811F738FEF8F87188A198A498D4C873F
:1033E0005A8D5D872E868E899F89A88D89879A87B9
:1033F000AB872BA13CA14DA15EA16F8D78A189A1C6
:103400009AA10E94192220E030E04FE753E40E9485
:1034100019220E949620062FCE010F960E94760652
:10342000FC0180819181A2818F87988BA98B602F6D
:10343000CE010C960E947606FC0180819181A281CA
:103440008C879D87AE87602FCE0109960E947606F5
:10345000FC0180819181A28189879A87AB87109234
:103460001C0210921B02E0901A02EE2029F0E0905C
:103470001902E110E0901802F0902702F11016C036
:1034800080912602811103C0F0902802F32410924B
:10349000170210921602183019F150F4123081F010
:1034A000143009F0E9CE30921702E6CEF12CEFCFBE
:1034B0001031F9F0103209F0DFCE30921602DCCE76
:1034C00029853A854B8560E070E080E00E94D20C4F
:1034D000FF2009F4D1CEE110CFCE30921B02CCCE2A
:1034E00069857A858B85298D3A8D422D0E94D20C73
:1034F000C3CE298D3A8D422DB901822DF7CF85306B
:10350000FBE19F07F0E2AF07B105E9F5898181FB97
:10351000222720F920932602982F9170909327025A
:1035200082FB332730F93093280284FB442740F98B
:103530004093190283FB442740F940931A0285FB0C
:10354000882780F9809318028FEF311101C080E045
:103550008093070210920802109209028FEF211146
:1035600001C080E080930A0210920B0210920C02BC
:103570008FEF911101C080E080930D0210920E0236
:1035800010920F0279CE82309740A043B10509F026
:10359000B9C06C81862F90E0982F88276B81680FC7
:1035A000792F711D90E080E00E94C5206B017C01A5
:1035B0006A81862F90E0982F88276981680F792F7C
:1035C000711D90E080E00E94C5202B013C01AC0100
:1035D0009B01C701B6010E94EA1F4B015C0120E07C
:1035E00030E040E85FE30E94E51F87FD06C0812CC4
:1035F000912C20E8A22E2FE3B22E8091170288236F
:1036000059F13C8D39874D8D4A875E8D5B87A501C9
:103610009401C501B4010E941922A50194010E94E0
:103620001922A50194010E94192220E030E04FE701
:1036300053E40E9419220E949620CE0109960E940E
:103640007606DC012D913D914C9129873A874B8775
:1036500060E070E080E04ACF80911602882309F490
:103660000BCE20E030E84BEB55E4C701B6010E94D9
:10367000781FA30192010E94EA1F6B017C0120E0E8
:1036800030E0A9010E94E51F87FD38C020E030E04E
:1036900040E85FE3C701B6010E949E21181634F48A
:1036A000C12CD12C90E8E92E9FE3F92E2BA53CA547
:1036B0004DA529873A874B87A7019601C701B60117
:1036C0000E941922A70196010E94192220E030E0F1
:1036D0004FE753E40E9419220E949620CE010996DA
:1036E0000E947606FC0180819181A28189879A8758
:1036F000AB879C014A2FBC018A2FF8CEC12CD12C5C
:103700007601D4CF82E792E00E947910B5CD809106
:103710002E028823B1F18FEF89831A821B820E94C7
:10372000BF030E94C52020E030E048E452E40E943C
:10373000EA1F0E94D62220E030E040E850E40E94D8
:10374000862220E030E04FE753E40E9419220E94D5
:103750009620CE0101960E947606FC01808191811F
:10376000A28189839A83AB83809310029093110284
:10377000A09312028093130290931402A093150257
:1037800009CE10911B02112309F44FC02EA53FA5AD
:1037900048A929833A834B830E94BF030E94C52016
:1037A00020E030E04AEF53E40E94EA1F0E94D62254
:1037B0006B017C010E94BF030E94C52020E030E025
:1037C0004AEF53E40E94EA1F0E94D6229B01AC01FB
:1037D000C701B6010E9419226B017C010E94BF0340
:1037E0000E94C52020E030E04AEF53E40E94EA1F27
:1037F0000E94D6229B01AC01C701B6010E9419228A
:103800006B017C010E94BF030E94C52020E030E0D4
:103810004AEF53E40E94EA1F0E94D6229B01AC01AA
:10382000C701B6010E9419228CCF80911C02882307
:1038300009F4B0CD0E94BF03AB01BC0184E07695D2
:103840006795579547958A95D1F780910502682F1E
:10385000640F262F220F220F220F95E5822F899FBA
:10386000080E80E0811D1124362F3072462F4074DF
:1038700067FD4EC0411138C0311106C0982F909598
:10388000282F892F90E004C025E5280F90E08BEACF
:103890008093100220931102909312020E94BF03A2
:1038A00021E130E040E050E00E94121F80910302CD
:1038B000280F322F330F330F330F95E5832F899F56
:1038C000080E80E0811D1124422F4072522F507447
:1038D00027FD85C0511171C0411138C0982F9095B6
:1038E000282F892F90E036C031110DC0922F2AEA7F
:1038F000929F090E90E0911D11242BEA291B922F13
:103900002AEA280FBECF282F2095982F80E0C0CF1D
:10391000411111C031110BC0922F8AEA989F090EF4
:1039200090E0911D11242BEA291B9B5AEFCF982F71
:10393000909520E0ADCF311106C025E5280F9BEA18
:10394000981B822FF6CF2AEA280FFACF25E5280FF9
:1039500090E08BEA80931302209314029093150257
:103960000E94BF030E94C52020E030E048EC53E4F1
:103970000E94EA1F0E94D6226B017C010E94BF03B5
:103980000E94C52020E030E048EC53E40E94EA1F8A
:103990000E94D6229B01AC01C701B6010E941922E8
:1039A00020E030E04FE753E40E9419220E94962065
:1039B00083E192E00E947606EDCC41110AC02AEA2A
:1039C000329F030E30E0311D11249BEA931B280F18
:1039D00088CFF0E0282F2095982F80E0BBCF5111A1
:1039E00011C041110BC0932F8AEA989F090E90E0F5
:1039F000911D11242BEA291B9B5AEFCF982F9095EC
:103A000020E0A8CF411106C025E5280F9BEA981BAE
:103A1000822FF6CF2AEA280F30E0F9CF80E00E940B
:103A2000EF1040E053E060E270E080E00E94971009
:103A300040E053E060E370E081E00E94971081E095
:103A40000E94EF1040E052E060E270E082E00E94ED
:103A5000971040E052E060E270E083E00E9497102F
:103A600042E057E060E370E084E00E94971045E098
:103A70005BE160E270E085E00E9497101092E50241
:103A800080E00E94950D0E94BF034B015C01809174
:103A9000190190911A01A0911B018E8B9F8BA88F09
:103AA0000E94BF03681979098A099B096C3D75401A
:103AB0008105910508F0B1C90E94BF036819790911
:103AC0008A099B090E94C52020E030E84BEB54E4B2
:103AD0000E94EA1F6B017C01AC019B010E9419222C
:103AE0002B013C01A7019601C701B6010E94791F75
:103AF0009B01AC0160E070E080E490E40E94781FDC
:103B00009B01AC01C301B2010E9419222B013C01AF
:103B100020E030E040EA50E40E94192220E030E04A
:103B200040E050E40E94781F6B017C0120E030E00F
:103B300040EC50E4C301B2010E94192220E030E0C1
:103B400040E050E40E94781F2B013C01A701960140
:103B500060E070E080E89FE30E94781F9B01AC0169
:103B60000E94192290582BE037ED43EA5FE30E9450
:103B7000EA1F0E9464202E893F89488D20931002FD
:103B8000309311024093120220E030E04FE753E4FB
:103B90000E9419220E94962080E192E00E947606FF
:103BA000A701960160E070E0CB010E94781F9B01A5
:103BB000AC010E94192290582BE037ED43EA5FE3F5
:103BC0000E94EA1F0E9464202E893F89488D20931D
:103BD0001302309314024093150220E030E04FE7C7
:103BE00053E40E9419220E94962083E192E00E94F1
:103BF000760657E0E52E52E0F52E02E010E0B8011F
:103C0000012E000C880B990B0E94C720A301920182
:103C10000E94781F9B01AC010E94192290582BE052
:103C200037ED43EA5FE30E94EA1F0E9464202E8979
:103C30003F89488DD7012D933D934C9320E030E090
:103C40004FE753E40E9419220E949620C7010E9468
:103C5000760601501109B3E0EB0EF11C0F3F10077F
:103C600071F68091C3020E94CB036AE070E080E0AD
:103C700090E00E948D0314CF8F929F92AF92BF92DB
:103C8000CF92DF92EF92FF92CF93DF93EC016881A6
:103C900079818A819B81611571058105910521F4E6
:103CA00064E279ED8BE597E02DE133EF41E050E000
:103CB0000E94E01E49015A019B01AC01A7EAB1E450
:103CC0000E94FF1E6B017C01ACEEB4EFA5019401D4
:103CD0000E940D1FC60ED71EE81EF91EF7FE06C075
:103CE00081E0C81AD108E10880E8F80AC882D982C0
:103CF000EA82FB82C701B6019F77DF91CF91FF90E7
:103D0000EF90DF90CF90BF90AF909F908F900895ED
:103D10008F929F92AF92BF92CF92DF92EF92FF92DB
:103D200060910C0170910D0180910E0190910F0135
:103D3000611571058105910521F464E279ED8BE54A
:103D400097E02DE133EF41E050E00E94E01E490191
:103D50005A019B01AC01A7EAB1E40E94FF1E6B016E
:103D60007C01ACEEB4EFA50194010E940D1FC60EBC
:103D7000D71EE81EF91EF7FE06C081E0C81AD1085A
:103D8000E10880E8F80AC0920C01D0920D01E0929F
:103D90000E01F0920F01C701B6019F77FF90EF90DF
:103DA000DF90CF90BF90AF909F908F9008956093D9
:103DB0000C0170930D0180930E0190930F010895F3
:103DC000052E97FB1EF400940E94F71E57FD07D0A6
:103DD0000E94121F07FC03D04EF40C94F71E50955E
:103DE0004095309521953F4F4F4F5F4F08959095E7
:103DF0008095709561957F4F8F4F9F4F08950E94DA
:103E0000341FA59F900DB49F900DA49F800D911D10
:103E100011240895B7FF0C94FF1E0E94FF1E821B01
:103E2000930B0895A1E21A2EAA1BBB1BFD010DC026
:103E3000AA1FBB1FEE1FFF1FA217B307E407F5075A
:103E400020F0A21BB30BE40BF50B661F771F881F36
:103E5000991F1A9469F760957095809590959B01CC
:103E6000AC01BD01CF010895A29FB001B39FC00175
:103E7000A39F700D811D1124911DB29F700D811D96
:103E80001124911D089597FB072E16F4009407D076
:103E900077FD09D00E94641F07FC05D03EF4909581
:103EA00081959F4F0895709561957F4F0895EE0F0E
:103EB000FF1F0590F491E02D09940E94341FB7FF75
:103EC0000895821B930B0895AA1BBB1B51E107C0E9
:103ED000AA1FBB1FA617B70710F0A61BB70B881F9A
:103EE000991F5A95A9F780959095BC01CD01089529
:103EF0005058BB27AA270E94901F0C9464210E944F
:103F0000562138F00E945D2120F039F49F3F19F4CA
:103F100026F40C942C210EF4E095E7FB0C9426215A
:103F2000E92F0E94752158F3BA17620773078407B7
:103F3000950720F079F4A6F50C9497210EF4E095FE
:103F40000B2EBA2FA02D0B01B90190010C01CA0153
:103F5000A0011124FF27591B99F0593F50F4503EFE
:103F600068F11A16F040A22F232F342F4427585FF0
:103F7000F3CF469537952795A795F0405395C9F708
:103F80007EF41F16BA0B620B730B840BBAF09150C0
:103F9000A1F0FF0FBB1F661F771F881FC2F70EC05F
:103FA000BA0F621F731F841F48F487957795679532
:103FB000B795F7959E3F08F0B0CF9395880F08F01E
:103FC0009927EE0F9795879508950E94022108F48E
:103FD00081E008950E94FE1F0C9464210E945D21DF
:103FE00058F00E94562140F029F45F3F29F00C94CC
:103FF000262151110C9498210C942C210E9475219A
:1040000068F39923B1F3552391F3951B550BBB2707
:10401000AA2762177307840738F09F5F5F4F220F4C
:10402000331F441FAA1FA9F335D00E2E3AF0E0E843
:1040300032D091505040E695001CCAF72BD0FE2F8D
:1040400029D0660F771F881FBB1F26173707480721
:10405000AB07B0E809F0BB0B802DBF01FF279358D9
:104060005F4F3AF09E3F510578F00C9426210C9456
:1040700098215F3FE4F3983ED4F386957795679552
:10408000B795F7959F5FC9F7880F911D969587950E
:1040900097F90895E1E0660F771F881FBB1F62172D
:1040A00073078407BA0720F0621B730B840BBA0BEB
:1040B000EE1F88F7E095089529F416F00C94262158
:1040C0000C9497210C942C210E947D21A8F3963802
:1040D000A0F707F80F92E8942BE33AEA48EB5FE782
:1040E0000E942F220F920F920F924DB75EB70F9240
:1040F0000E94E521ECEAF0E00E942F214F915F91B0
:10410000EF91FF91E595EE1FFF1F49F0FE57E06824
:104110004427EE0F441FFA95E1F74195550B0E9495
:10412000AF210F9007FE0C94A32108950E947D21DA
:1041300088F09F5798F0B92F9927B751B0F0E1F068
:10414000660F771F881F991F1AF0BA95C9F714C018
:10415000B13091F00E949721B1E008950C9497211D
:10416000672F782F8827B85F39F0B93FCCF3869551
:1041700077956795B395D9F73EF4909580957095AE
:1041800061957F4F8F4F9F4F0895E89409C097FB2B
:104190003EF490958095709561957F4F8F4F9F4F1E
:1041A0009923A9F0F92F96E9BB279395F695879562
:1041B00077956795B795F111F8CFFAF4BB0F11F425
:1041C00060FF1BC06F5F7F4F8F4F9F4F16C08823CC
:1041D00011F096E911C0772321F09EE8872F762F02
:1041E00005C0662371F096E8862F70E060E02AF043
:1041F0009A95660F771F881FDAF7880F969587952F
:1042000097F90895990F0008550FAA0BE0E8FEEF03
:1042100016161706E807F907C0F012161306E4078A
:10422000F50798F0621B730B840B950B39F40A2683
:1042300061F0232B242B252B21F408950A2609F461
:10424000A140A6958FEF811D811D089597F99F6765
:1042500080E870E060E008959FEF80EC0895DF93C0
:10426000CF931F930F93FF92EF92DF927B018C010C
:10427000689406C0DA2EEF010E942C22FE01E89419
:10428000A5912591359145915591A6F3EF010E9495
:10429000901FFE019701A801DA9469F7DF90EF9073
:1042A000FF900F911F91CF91DF91089500240A9400
:1042B0001616170618060906089500240A94121601
:1042C0001306140605060895092E0394000C11F434
:1042D000882352F0BB0F40F4BF2B11F460FF04C0E1
:1042E0006F5F7F4F8F4F9F4F089557FD9058440F3A
:1042F000551F59F05F3F71F04795880F97FB991F45
:1043000061F09F3F79F08795089512161306140601
:10431000551FF2CF4695F1DF08C01616170618068E
:10432000991FF1CF86957105610508940895E89469
:10433000BB2766277727CB0197F908950E940221B2
:1043400008F48FEF08959B01AC0160E070E080E815
:104350009FE30C94EA1F0C9426210C94DE220E9409
:104360007D21D8F39923C9F3940F511DA3F39150E4
:10437000504094F059F0882332F0660F771F881F61
:1043800091505040C1F79E3F51052CF7880F911D69
:104390009695879597F908955F3FACF0983E9CF00D
:1043A000BB27869577956795B79508F4B160939587
:1043B000C1F7BB0F58F711F460FFE8CF6F5F7F4F75
:1043C0008F4F9F4FE3CF0C949821FA01DC01AA0F85
:1043D000BB1F9B01AC01BF5728F42227332744277A
:1043E000507820C0B75190F4AB2F002446953795F4
:1043F0002795011CA395D2F3002071F0220F331FE3
:10440000441FB395DAF30ED00C94781F6130710518
:10441000A0E88A07B94630F49B01AC0166277727EC
:1044200088279078309621F020833183428353830C
:1044300008950E942C220C9464210E94562138F089
:104440000E945D2120F0952311F00C9426210C94FC
:104450002C2111240C9498210E94752170F3959FB2
:10446000C1F3950F50E0551F629FF001729FBB276B
:10447000F00DB11D639FAA27F00DB11DAA1F649F07
:104480006627B00DA11D661F829F2227B00DA11DBA
:10449000621F739FB00DA11D621F839FA00D611D40
:1044A000221F749F3327A00D611D231F849F600D61
:1044B000211D822F762F6A2F11249F5750409AF08A
:1044C000F1F088234AF0EE0FFF1FBB1F661F771F16
:1044D000881F91505040A9F79E3F510580F00C94E1
:1044E00026210C9498215F3FE4F3983ED4F38695FF
:1044F00077956795B795F795E7959F5FC1F7FE2B81
:10450000880F911D9695879597F90895FA01EE0FFA
:10451000FF1F309621053105A1F16115710561F488
:104520008038BFE39B0749F168949038810561F0BA
:104530008038BFEF9B0741F099234AF5FF3FE10523
:104540003105210519F1E8940894E795D901AA23CA
:1045500029F4AB2FBE2FF85FD0F310C0FF5F70F4CB
:10456000A695E0F7F73950F019F0FF3A38F49F7745
:104570009F930DD00F9007FC9058089546F00C942F
:104580002C2160E070E080E89FE308954FE79F777B
:104590005F934F933F932F930E9433232F913F912B
:1045A0004F915F910E9419220C9464209F930E9466
:1045B000EE220F9007FCEE5F0C9417239F3F31F023
:1045C000915020F4879577956795B795880F911D41
:1045D0009695879597F908950C942C210E947D213A
:1045E000D8F3E894E0E0BB279F57F0F02AED3FE0D6
:1045F00049EC06C0EE0FBB0F661F771F881F28F01F
:10460000B23A62077307840728F0B25A620B730B41
:10461000840BE3959A9572F7803830F49A95BB0F26
:10462000661F771F881FD2F790480C94E022EF9303
:10463000E0FF07C0A2EA2AED3FE049EC5FEB0E94F1
:10464000901F0E9464210F90039401FC9058E4EDA8
:10465000F0E00C947B2316F00C94DE220C942C21B9
:1046600068940C9426210E947D21A8F39923C1F31C
:10467000AEF3DF93CF931F930F93FF92C92FDD27E4
:1046800088232AF02197660F771F881FDAF720E02A
:1046900030E040E85FEB9FE3883920F0803E38F05F
:1046A00021968F770E94791FE2EFF0E004C00E940C
:1046B000791FEFE1F1E00E942F218B01BE01EC0197
:1046C000FB2E6F5771097595771F880B990B0E9408
:1046D000C72028E132E741E35FE30E942C22AF2D9F
:1046E0009801AE01FF900F911F91CF91DF910E9431
:1046F000901F0C9464219F938F937F936F93FF93EC
:10470000EF939B01AC010E941922EF91FF910E944F
:104710002F212F913F914F915F910C94192281E0AD
:0C47200090E0F8940C949423F894FFCFE0
:10472C00FFFFFFFF00E1000000000000010000009F
:10473C00304050FFA500800080003278000000005F
:10474C00341134113411E50C1507E10CDE0CDB0CC3
:10475C0000C18081000000000000007E0C180CBA23
:10476C0009E50C1507E10CDE0CDB0460070000000A
:10477C00007E0C180C160CE50C1507E10CDE0CDB9E
:10478C0004BC0905640200000000F505700516065E
:10479C000B065C061A0638060D0A005453206F6E81
:1047AC00005453206F66660054532068656C642077
:1047BC00666F7220357300525444206F6E00525451
:1047CC0044206F6666005254442068656C64206611
:0647DC006F72203573002E
:00000001FF
